{
  "abi": [
    {
      "inputs": [
        {
          "internalType": "address",
          "name": "_dispatcher",
          "type": "address"
        },
        {
          "internalType": "address",
          "name": "_fundDeployer",
          "type": "address"
        },
        {
          "internalType": "address",
          "name": "_assetRegistry",
          "type": "address"
        },
        {
          "internalType": "address",
          "name": "_priceAggregator",
          "type": "address"
        }
      ],
      "stateMutability": "nonpayable",
      "type": "constructor"
    },
    {
      "inputs": [],
      "name": "AlreadyInitialized",
      "type": "error"
    },
    {
      "inputs": [],
      "name": "DepositAmountUnderLimit",
      "type": "error"
    },
    {
      "inputs": [],
      "name": "DuplicateAsset",
      "type": "error"
    },
    {
      "inputs": [],
      "name": "ExceedsMaxBPS",
      "type": "error"
    },
    {
      "inputs": [],
      "name": "InvalidAccess",
      "type": "error"
    },
    {
      "inputs": [],
      "name": "InvalidArrayLengths",
      "type": "error"
    },
    {
      "inputs": [],
      "name": "InvalidAsset",
      "type": "error"
    },
    {
      "inputs": [],
      "name": "InvalidDepositorAddress",
      "type": "error"
    },
    {
      "inputs": [],
      "name": "InvalidInvestmentAmount",
      "type": "error"
    },
    {
      "inputs": [],
      "name": "InvalidInvestor",
      "type": "error"
    },
    {
      "inputs": [],
      "name": "InvalidShareAmount",
      "type": "error"
    },
    {
      "inputs": [],
      "name": "InvalidSharePrice",
      "type": "error"
    },
    {
      "inputs": [],
      "name": "LowVaultBalance",
      "type": "error"
    },
    {
      "inputs": [],
      "name": "NotAllowedDueToBalance",
      "type": "error"
    },
    {
      "inputs": [],
      "name": "Percentage100NotMet",
      "type": "error"
    },
    {
      "anonymous": false,
      "inputs": [
        {
          "indexed": false,
          "internalType": "address[]",
          "name": "investorAddressess",
          "type": "address[]"
        }
      ],
      "name": "AllowedInvestorsForPrivateFund",
      "type": "event"
    },
    {
      "anonymous": false,
      "inputs": [
        {
          "indexed": true,
          "internalType": "address",
          "name": "_asset",
          "type": "address"
        }
      ],
      "name": "DepositAssetAdded",
      "type": "event"
    },
    {
      "anonymous": false,
      "inputs": [
        {
          "indexed": false,
          "internalType": "uint256",
          "name": "sharePrice",
          "type": "uint256"
        },
        {
          "indexed": false,
          "internalType": "uint256",
          "name": "performanceFeeBps",
          "type": "uint256"
        },
        {
          "indexed": false,
          "internalType": "uint256",
          "name": "managementFeeBps",
          "type": "uint256"
        },
        {
          "indexed": false,
          "internalType": "address",
          "name": "investorAddress",
          "type": "address"
        },
        {
          "indexed": false,
          "internalType": "uint256",
          "name": "performanceFee",
          "type": "uint256"
        },
        {
          "indexed": false,
          "internalType": "uint256",
          "name": "managementFee",
          "type": "uint256"
        },
        {
          "indexed": false,
          "internalType": "uint256",
          "name": "protocolFee",
          "type": "uint256"
        }
      ],
      "name": "FeeClaimed",
      "type": "event"
    },
    {
      "anonymous": false,
      "inputs": [
        {
          "indexed": false,
          "internalType": "uint256",
          "name": "performanceFeeBps",
          "type": "uint256"
        },
        {
          "indexed": false,
          "internalType": "uint256",
          "name": "managementFeeBps",
          "type": "uint256"
        }
      ],
      "name": "FeePolicySet",
      "type": "event"
    },
    {
      "anonymous": false,
      "inputs": [
        {
          "indexed": true,
          "internalType": "address",
          "name": "buyer",
          "type": "address"
        },
        {
          "indexed": false,
          "internalType": "uint256",
          "name": "_sharePrice",
          "type": "uint256"
        },
        {
          "indexed": false,
          "internalType": "uint256",
          "name": "investmentAmount",
          "type": "uint256"
        },
        {
          "indexed": false,
          "internalType": "uint256",
          "name": "sharesReturned",
          "type": "uint256"
        },
        {
          "indexed": false,
          "internalType": "address",
          "name": "buyAssetAddress",
          "type": "address"
        },
        {
          "indexed": false,
          "internalType": "uint256",
          "name": "tokensTranferred",
          "type": "uint256"
        },
        {
          "indexed": false,
          "internalType": "uint256",
          "name": "performanceFee",
          "type": "uint256"
        },
        {
          "indexed": false,
          "internalType": "uint256",
          "name": "managementFee",
          "type": "uint256"
        },
        {
          "indexed": false,
          "internalType": "uint256",
          "name": "protocolFee",
          "type": "uint256"
        }
      ],
      "name": "SharesBought",
      "type": "event"
    },
    {
      "anonymous": false,
      "inputs": [
        {
          "indexed": true,
          "internalType": "uint256",
          "name": "sharesRedeemed",
          "type": "uint256"
        },
        {
          "indexed": false,
          "internalType": "address[]",
          "name": "receivedAssets",
          "type": "address[]"
        },
        {
          "indexed": false,
          "internalType": "uint256[]",
          "name": "receivedAssetAmounts",
          "type": "uint256[]"
        },
        {
          "indexed": false,
          "internalType": "uint256",
          "name": "redemptionFees",
          "type": "uint256"
        }
      ],
      "name": "SharesRedeemed",
      "type": "event"
    },
    {
      "anonymous": false,
      "inputs": [
        {
          "indexed": true,
          "internalType": "uint256",
          "name": "sharesRedeemed",
          "type": "uint256"
        },
        {
          "indexed": true,
          "internalType": "address",
          "name": "redeemer",
          "type": "address"
        },
        {
          "indexed": false,
          "internalType": "uint256",
          "name": "tokensRedeemed",
          "type": "uint256"
        },
        {
          "indexed": false,
          "internalType": "address",
          "name": "redeemedAssetAddress",
          "type": "address"
        }
      ],
      "name": "SharesRedeemedSingleAsset",
      "type": "event"
    },
    {
      "anonymous": false,
      "inputs": [
        {
          "indexed": true,
          "internalType": "address",
          "name": "redeemer",
          "type": "address"
        },
        {
          "indexed": false,
          "internalType": "enum IComptroller.RedeemType",
          "name": "redeemType",
          "type": "uint8"
        },
        {
          "indexed": false,
          "internalType": "uint256",
          "name": "sharePrice",
          "type": "uint256"
        },
        {
          "indexed": false,
          "internalType": "uint256",
          "name": "redeemSharesQuantity",
          "type": "uint256"
        },
        {
          "indexed": false,
          "internalType": "address",
          "name": "withdrawAsset",
          "type": "address"
        },
        {
          "indexed": false,
          "internalType": "uint256",
          "name": "tokensToWithdraw",
          "type": "uint256"
        },
        {
          "indexed": false,
          "internalType": "uint256",
          "name": "performanceFee",
          "type": "uint256"
        },
        {
          "indexed": false,
          "internalType": "uint256",
          "name": "managementFee",
          "type": "uint256"
        },
        {
          "indexed": false,
          "internalType": "uint256",
          "name": "protocolFee",
          "type": "uint256"
        }
      ],
      "name": "SharesWithdrawn",
      "type": "event"
    },
    {
      "anonymous": false,
      "inputs": [
        {
          "indexed": false,
          "internalType": "address",
          "name": "_tokenProxy",
          "type": "address"
        }
      ],
      "name": "TokenProxySet",
      "type": "event"
    },
    {
      "anonymous": false,
      "inputs": [
        {
          "indexed": false,
          "internalType": "address",
          "name": "vaultProxy",
          "type": "address"
        }
      ],
      "name": "VaultProxySet",
      "type": "event"
    },
    {
      "anonymous": false,
      "inputs": [
        {
          "indexed": false,
          "internalType": "uint256",
          "name": "sharesLockupPeriod",
          "type": "uint256"
        },
        {
          "indexed": false,
          "internalType": "uint256",
          "name": "withdrawFeeBps",
          "type": "uint256"
        }
      ],
      "name": "WithdrawPolicySet",
      "type": "event"
    },
    {
      "inputs": [],
      "name": "ASSET_REGISTRY",
      "outputs": [
        {
          "internalType": "address",
          "name": "",
          "type": "address"
        }
      ],
      "stateMutability": "view",
      "type": "function"
    },
    {
      "inputs": [],
      "name": "PRICE_AGGREGATOR",
      "outputs": [
        {
          "internalType": "address",
          "name": "",
          "type": "address"
        }
      ],
      "stateMutability": "view",
      "type": "function"
    },
    {
      "inputs": [
        {
          "internalType": "enum IVault.VaultActions",
          "name": "_action",
          "type": "uint8"
        },
        {
          "internalType": "bytes",
          "name": "_actionData",
          "type": "bytes"
        }
      ],
      "name": "VaultAction",
      "outputs": [],
      "stateMutability": "nonpayable",
      "type": "function"
    },
    {
      "inputs": [
        {
          "internalType": "address",
          "name": "_asset",
          "type": "address"
        }
      ],
      "name": "addDepositAsset",
      "outputs": [],
      "stateMutability": "nonpayable",
      "type": "function"
    },
    {
      "inputs": [
        {
          "internalType": "address[]",
          "name": "_assets",
          "type": "address[]"
        }
      ],
      "name": "addDepositAssetBulk",
      "outputs": [],
      "stateMutability": "nonpayable",
      "type": "function"
    },
    {
      "inputs": [],
      "name": "assetDenomination",
      "outputs": [
        {
          "internalType": "address",
          "name": "",
          "type": "address"
        }
      ],
      "stateMutability": "view",
      "type": "function"
    },
    {
      "inputs": [
        {
          "internalType": "address",
          "name": "_depositAsset",
          "type": "address"
        },
        {
          "internalType": "uint256",
          "name": "_investmentAmount",
          "type": "uint256"
        }
      ],
      "name": "buyShares",
      "outputs": [
        {
          "internalType": "uint256",
          "name": "",
          "type": "uint256"
        },
        {
          "internalType": "uint256",
          "name": "",
          "type": "uint256"
        }
      ],
      "stateMutability": "nonpayable",
      "type": "function"
    },
    {
      "inputs": [],
      "name": "calculateNetValueUSD",
      "outputs": [
        {
          "internalType": "uint256",
          "name": "value",
          "type": "uint256"
        }
      ],
      "stateMutability": "view",
      "type": "function"
    },
    {
      "inputs": [],
      "name": "calculateSharePrice",
      "outputs": [
        {
          "internalType": "uint256",
          "name": "",
          "type": "uint256"
        }
      ],
      "stateMutability": "nonpayable",
      "type": "function"
    },
    {
      "inputs": [
        {
          "internalType": "uint256",
          "name": "_sharePrice",
          "type": "uint256"
        },
        {
          "internalType": "uint256",
          "name": "_investmentValue",
          "type": "uint256"
        }
      ],
      "name": "calculateShares",
      "outputs": [
        {
          "internalType": "uint256",
          "name": "",
          "type": "uint256"
        }
      ],
      "stateMutability": "pure",
      "type": "function"
    },
    {
      "inputs": [
        {
          "internalType": "address",
          "name": "_extension",
          "type": "address"
        },
        {
          "internalType": "address",
          "name": "_to",
          "type": "address"
        },
        {
          "internalType": "uint256",
          "name": "_actionId",
          "type": "uint256"
        },
        {
          "internalType": "bytes",
          "name": "_actionData",
          "type": "bytes"
        }
      ],
      "name": "callExtension",
      "outputs": [],
      "stateMutability": "nonpayable",
      "type": "function"
    },
    {
      "inputs": [
        {
          "internalType": "address",
          "name": "_investorAddress",
          "type": "address"
        }
      ],
      "name": "claimPerfManagementFeeBps",
      "outputs": [
        {
          "internalType": "uint256",
          "name": "",
          "type": "uint256"
        },
        {
          "internalType": "uint256",
          "name": "",
          "type": "uint256"
        },
        {
          "internalType": "uint256",
          "name": "",
          "type": "uint256"
        }
      ],
      "stateMutability": "nonpayable",
      "type": "function"
    },
    {
      "inputs": [],
      "name": "fundManager",
      "outputs": [
        {
          "internalType": "address",
          "name": "",
          "type": "address"
        }
      ],
      "stateMutability": "view",
      "type": "function"
    },
    {
      "inputs": [],
      "name": "getDispatcher",
      "outputs": [
        {
          "internalType": "address",
          "name": "dispatcher_",
          "type": "address"
        }
      ],
      "stateMutability": "view",
      "type": "function"
    },
    {
      "inputs": [],
      "name": "getFundDeployer",
      "outputs": [
        {
          "internalType": "address",
          "name": "fundDeployer_",
          "type": "address"
        }
      ],
      "stateMutability": "view",
      "type": "function"
    },
    {
      "inputs": [],
      "name": "getFundManagerShares",
      "outputs": [
        {
          "internalType": "uint256",
          "name": "",
          "type": "uint256"
        }
      ],
      "stateMutability": "nonpayable",
      "type": "function"
    },
    {
      "inputs": [
        {
          "internalType": "address",
          "name": "investorAddress",
          "type": "address"
        }
      ],
      "name": "getInvestorInvestments",
      "outputs": [
        {
          "internalType": "uint256",
          "name": "",
          "type": "uint256"
        },
        {
          "internalType": "uint256",
          "name": "",
          "type": "uint256"
        },
        {
          "internalType": "uint256",
          "name": "",
          "type": "uint256"
        }
      ],
      "stateMutability": "nonpayable",
      "type": "function"
    },
    {
      "inputs": [],
      "name": "getSharePrice",
      "outputs": [
        {
          "internalType": "uint256",
          "name": "",
          "type": "uint256"
        }
      ],
      "stateMutability": "view",
      "type": "function"
    },
    {
      "inputs": [],
      "name": "getTokenProxy",
      "outputs": [
        {
          "internalType": "address",
          "name": "",
          "type": "address"
        }
      ],
      "stateMutability": "view",
      "type": "function"
    },
    {
      "inputs": [
        {
          "internalType": "address",
          "name": "_fundManager",
          "type": "address"
        },
        {
          "internalType": "address",
          "name": "_assetDenomination",
          "type": "address"
        }
      ],
      "name": "init",
      "outputs": [],
      "stateMutability": "nonpayable",
      "type": "function"
    },
    {
      "inputs": [],
      "name": "managementFeeBps",
      "outputs": [
        {
          "internalType": "uint256",
          "name": "",
          "type": "uint256"
        }
      ],
      "stateMutability": "view",
      "type": "function"
    },
    {
      "inputs": [],
      "name": "performanceFeeBps",
      "outputs": [
        {
          "internalType": "uint256",
          "name": "",
          "type": "uint256"
        }
      ],
      "stateMutability": "view",
      "type": "function"
    },
    {
      "inputs": [
        {
          "internalType": "uint256",
          "name": "_sharesQuantity",
          "type": "uint256"
        },
        {
          "internalType": "address[]",
          "name": "_payoutAssets",
          "type": "address[]"
        },
        {
          "internalType": "uint16[]",
          "name": "_payoutAssetSharesPercentages",
          "type": "uint16[]"
        }
      ],
      "name": "redeemSharesInKind",
      "outputs": [
        {
          "internalType": "uint256[]",
          "name": "payoutTokenAmounts_",
          "type": "uint256[]"
        }
      ],
      "stateMutability": "nonpayable",
      "type": "function"
    },
    {
      "inputs": [
        {
          "internalType": "uint256",
          "name": "_sharesQuantity",
          "type": "uint256"
        },
        {
          "internalType": "address",
          "name": "_payoutAsset",
          "type": "address"
        }
      ],
      "name": "redeemSharesSingleAsset",
      "outputs": [
        {
          "internalType": "uint256",
          "name": "payoutTokenAmount_",
          "type": "uint256"
        }
      ],
      "stateMutability": "nonpayable",
      "type": "function"
    },
    {
      "inputs": [],
      "name": "redemptionFeesBps",
      "outputs": [
        {
          "internalType": "uint256",
          "name": "",
          "type": "uint256"
        }
      ],
      "stateMutability": "view",
      "type": "function"
    },
    {
      "inputs": [
        {
          "internalType": "address",
          "name": "_asset",
          "type": "address"
        }
      ],
      "name": "removeDepositAsset",
      "outputs": [],
      "stateMutability": "nonpayable",
      "type": "function"
    },
    {
      "inputs": [
        {
          "internalType": "address[]",
          "name": "_asset",
          "type": "address[]"
        }
      ],
      "name": "removeDepositAssetBulk",
      "outputs": [],
      "stateMutability": "nonpayable",
      "type": "function"
    },
    {
      "inputs": [
        {
          "internalType": "address[]",
          "name": "investorAddress",
          "type": "address[]"
        }
      ],
      "name": "setAllowedInvestors",
      "outputs": [],
      "stateMutability": "nonpayable",
      "type": "function"
    },
    {
      "inputs": [
        {
          "internalType": "uint256",
          "name": "_pFees",
          "type": "uint256"
        },
        {
          "internalType": "uint256",
          "name": "_managementFees",
          "type": "uint256"
        }
      ],
      "name": "setFeePolicy",
      "outputs": [],
      "stateMutability": "nonpayable",
      "type": "function"
    },
    {
      "inputs": [
        {
          "internalType": "uint256",
          "name": "_startProfit",
          "type": "uint256"
        },
        {
          "internalType": "uint256",
          "name": "_endProfit",
          "type": "uint256"
        },
        {
          "internalType": "uint256",
          "name": "_fee",
          "type": "uint256"
        }
      ],
      "name": "setProfitFeeSlab",
      "outputs": [],
      "stateMutability": "nonpayable",
      "type": "function"
    },
    {
      "inputs": [
        {
          "internalType": "uint256",
          "name": "_sharePrice",
          "type": "uint256"
        }
      ],
      "name": "setSharePrice",
      "outputs": [],
      "stateMutability": "nonpayable",
      "type": "function"
    },
    {
      "inputs": [
        {
          "internalType": "address",
          "name": "_tokenProxy",
          "type": "address"
        }
      ],
      "name": "setTokenProxy",
      "outputs": [],
      "stateMutability": "nonpayable",
      "type": "function"
    },
    {
      "inputs": [
        {
          "internalType": "address",
          "name": "_vaultProxy",
          "type": "address"
        }
      ],
      "name": "setVaultProxy",
      "outputs": [],
      "stateMutability": "nonpayable",
      "type": "function"
    },
    {
      "inputs": [
        {
          "internalType": "uint256",
          "name": "_sharesLockupPeriod",
          "type": "uint256"
        },
        {
          "internalType": "uint256",
          "name": "_withdrawFeeBps",
          "type": "uint256"
        }
      ],
      "name": "setWithdrawalPolicy",
      "outputs": [],
      "stateMutability": "nonpayable",
      "type": "function"
    },
    {
      "inputs": [],
      "name": "sharePrice",
      "outputs": [
        {
          "internalType": "uint256",
          "name": "",
          "type": "uint256"
        }
      ],
      "stateMutability": "view",
      "type": "function"
    },
    {
      "inputs": [],
      "name": "tokenProxy",
      "outputs": [
        {
          "internalType": "address",
          "name": "",
          "type": "address"
        }
      ],
      "stateMutability": "view",
      "type": "function"
    },
    {
      "inputs": [],
      "name": "vaultProxy",
      "outputs": [
        {
          "internalType": "address",
          "name": "",
          "type": "address"
        }
      ],
      "stateMutability": "view",
      "type": "function"
    }
  ],
  "bytecode": {
    "object": "0x6101406040526127106080526301e187e060a0523480156200002057600080fd5b5060405162003bc838038062003bc8833981016040819052620000439162000086565b6001600160a01b0393841660c05291831660e052908216610100521661012052620000e3565b80516001600160a01b03811681146200008157600080fd5b919050565b600080600080608085870312156200009d57600080fd5b620000a88562000069565b9350620000b86020860162000069565b9250620000c86040860162000069565b9150620000d86060860162000069565b905092959194509250565b60805160a05160c05160e0516101005161012051613a0c620001bc6000396000818161038c015281816105eb015281816106ad015281816109a301528181611419015281816114a70152818161199d01528181611b8901528181611cb001526122fc01526000818161051801528181610be30152818161137201528181611a3301528181611c1f01528181611d460152818161244b01526128ca01526000818161045b0152612a2e015260006104dc01526000505060008181610b6a01528181610d6b01528181610e1b0152611e9b0152613a0c6000f3fe608060405234801561001057600080fd5b50600436106102275760003560e01c80635ddf123e116101305780639f2cad38116100b8578063ddfb0be41161007c578063ddfb0be4146104c7578063ebb3d589146104da578063f09a401614610500578063f24e4f3414610513578063f619ffd81461053a57600080fd5b80639f2cad381461047f578063a5425f5614610490578063b3c740e8146104a3578063b9d4e879146104b6578063c6505c03146104bf57600080fd5b806387269729116100ff578063872697291461041757806388fbedb314610420578063893a5372146104335780639265660b1461044657806397c0ac871461045957600080fd5b80635ddf123e146103b65780636209ec2d146103c95780636945b123146103dc5780637f11d33f1461040457600080fd5b80633b3c564e116101b35780634c431f00116101825780634c431f00146103335780634ccbeaf8146103615780634d34e06d14610374578063514ef8dd146103875780635b1dac60146103ae57600080fd5b80633b3c564e146103075780633c70158d1461030f5780634b2f817c146103175780634bcecd751461032057600080fd5b806330ca43e8116101fa57806330ca43e81461029757806336e5900b146102b75780633813c35a146102ca578063397bfe55146102e15780633b0bd2b8146102f457600080fd5b8063065b43bf1461022c57806308eec1df1461024157806316b6024914610271578063305664cc14610284575b600080fd5b61023f61023a366004613149565b61054d565b005b600054610254906001600160a01b031681565b6040516001600160a01b0390911681526020015b60405180910390f35b61023f61027f366004613175565b6105c9565b61023f6102923660046131d3565b6105d6565b6102aa6102a5366004613215565b6107f7565b60405161026891906132ca565b61023f6102c5366004613337565b610eb5565b6102d360075481565b604051908152602001610268565b61023f6102ef366004613399565b610f22565b61023f610302366004613399565b610fd5565b6102d361115c565b6102d36111d0565b6102d360055481565b61023f61032e366004613399565b6113f2565b610346610341366004613399565b611561565b60408051938452602084019290925290820152606001610268565b61023f61036f366004613399565b6115e4565b61023f6103823660046133b6565b61163a565b6102547f000000000000000000000000000000000000000000000000000000000000000081565b6102d36116a5565b61023f6103c436600461340f565b61174c565b600354610254906001600160a01b031681565b6103ef6103ea366004613431565b61179c565b60408051928352602083019190915201610268565b600254610254906001600160a01b031681565b6102d360045481565b61023f61042e36600461340f565b611de0565b600154610254906001600160a01b031681565b610346610454366004613399565b611e87565b7f0000000000000000000000000000000000000000000000000000000000000000610254565b6002546001600160a01b0316610254565b61023f61049e3660046131d3565b611fee565b6102d36104b136600461340f565b6121b0565b6102d360065481565b6102d361220d565b6102d36104d536600461345d565b612217565b7f0000000000000000000000000000000000000000000000000000000000000000610254565b61023f61050e36600461348d565b6125ba565b6102547f000000000000000000000000000000000000000000000000000000000000000081565b61023f6105483660046131d3565b61262b565b6105556126c8565b60025460405163065b43bf60e01b81526004810185905260248101849052604481018390526001600160a01b0390911690819063065b43bf90606401600060405180830381600087803b1580156105ab57600080fd5b505af11580156105bf573d6000803e3d6000fd5b5050505050505050565b6105d16126c8565b600455565b6105de6126c8565b60005b8181101561078e577f00000000000000000000000000000000000000000000000000000000000000006001600160a01b031663c18f9b9484848481811061062a5761062a6134bb565b905060200201602081019061063f9190613399565b6040516001600160e01b031960e084901b1681526001600160a01b039091166004820152602401602060405180830381865afa158015610683573d6000803e3d6000fd5b505050506040513d601f19601f820116820180604052508101906106a791906134d1565b610786577f00000000000000000000000000000000000000000000000000000000000000006001600160a01b03166347a9f8158484848181106106ec576106ec6134bb565b90506020020160208101906107019190613399565b6040516001600160e01b031960e084901b1681526001600160a01b039091166004820152602401602060405180830381865afa158015610745573d6000803e3d6000fd5b505050506040513d601f19601f8201168201806040525081019061076991906134d1565b61078657604051636448d6e960e11b815260040160405180910390fd5b6001016105e1565b50600154604051630c15993360e21b81526001600160a01b039091169063305664cc906107c19085908590600401613531565b600060405180830381600087803b1580156107db57600080fd5b505af11580156107ef573d6000803e3d6000fd5b505050505050565b60606108016126f5565b6008805461ff00191661010017905560008087810361083357604051638c88122d60e01b815260040160405180910390fd5b60025460405163cee2a9cf60e01b81523360048201526001600160a01b039091169063cee2a9cf90602401602060405180830381865afa15801561087b573d6000803e3d6000fd5b505050506040513d601f19601f8201168201806040525081019061089f91906134d1565b6108bc5760405163f3cf237760e01b815260040160405180910390fd5b8584146108dc5760405163a9854bc960e01b815260040160405180910390fd5b61091887878080602002602001604051908101604052809392919081815260200183836020028082843760009201919091525061273b92505050565b61093557604051630587daa360e41b815260040160405180910390fd5b600061093f61220d565b90508667ffffffffffffffff81111561095a5761095a613545565b604051908082528060200260200182016040528015610983578160200160208202803683370190505b506001549094506001600160a01b031660005b60ff8116891115610e18577f00000000000000000000000000000000000000000000000000000000000000006001600160a01b031663c18f9b948b8b8460ff168181106109e5576109e56134bb565b90506020020160208101906109fa9190613399565b6040516001600160e01b031960e084901b1681526001600160a01b039091166004820152602401602060405180830381865afa158015610a3e573d6000803e3d6000fd5b505050506040513d601f19601f82011682018060405250810190610a6291906134d1565b158015610b1157506001546001600160a01b031663702aa2988b8b60ff8516818110610a9057610a906134bb565b9050602002016020810190610aa59190613399565b6040516001600160e01b031960e084901b1681526001600160a01b0390911660048201526024016020604051808303816000875af1158015610aeb573d6000803e3d6000fd5b505050506040513d601f19601f82011682018060405250810190610b0f91906134d1565b155b15610b2f57604051636448d6e960e11b815260040160405180910390fd5b87878260ff16818110610b4457610b446134bb565b9050602002016020810190610b59919061355b565b610b639085613595565b9350610bc77f0000000000000000000000000000000000000000000000000000000000000000610bc18a8a8560ff16818110610ba157610ba16134bb565b9050602002016020810190610bb6919061355b565b8e9061ffff166127e4565b906127f0565b94506000610bdd6305f5e100610bc186896135bb565b905060007f00000000000000000000000000000000000000000000000000000000000000006001600160a01b031663912a55fd838e8e8760ff16818110610c2657610c266134bb565b9050602002016020810190610c3b9190613399565b6040516001600160e01b031960e085901b16815260048101929092526001600160a01b03166024820152604401602060405180830381865afa158015610c85573d6000803e3d6000fd5b505050506040513d601f19601f82011682018060405250810190610ca991906135da565b905060008c8c8560ff16818110610cc257610cc26134bb565b9050602002016020810190610cd79190613399565b6040516370a0823160e01b81526001600160a01b03878116600483015291909116906370a0823190602401602060405180830381865afa158015610d1f573d6000803e3d6000fd5b505050506040513d601f19601f82011682018060405250810190610d4391906135da565b905080821115610d6657604051633284137160e01b815260040160405180910390fd5b610d9f7f0000000000000000000000000000000000000000000000000000000000000000610bc16005548b6127e490919063ffffffff16565b610da990896135f3565b9750610de1888e8e8760ff16818110610dc457610dc46134bb565b9050602002016020810190610dd99190613399565b8860016127fc565b898560ff1681518110610df657610df66134bb565b6020026020010181815250505050508080610e109061360a565b915050610996565b507f00000000000000000000000000000000000000000000000000000000000000008361ffff1614610e5d5760405163253698b560e11b815260040160405180910390fd5b897fc81318a2f96039319197354971718d30db962636480f62d08b152b099993d3ee8a8a88600554604051610e959493929190613629565b60405180910390a2505050506008805461ff001916905595945050505050565b6040516321bc996160e01b81526001600160a01b038616906321bc996190610ee9903390889088908890889060040161368a565b600060405180830381600087803b158015610f0357600080fd5b505af1158015610f17573d6000803e3d6000fd5b505050505050505050565b6001546001600160a01b031615610f805760405162461bcd60e51b815260206004820152601960248201527f696e69743a20416c726561647920696e697469616c697a65640000000000000060448201526064015b60405180910390fd5b600180546001600160a01b0319166001600160a01b0383169081179091556040519081527f5be181178e61e61e33f79c396c7194b8f3c80f77899da7bd96fe537411300bcb906020015b60405180910390a150565b610fdd6126c8565b600154604051630e05545360e31b81526001600160a01b0383811660048301529091169063702aa298906024016020604051808303816000875af1158015611029573d6000803e3d6000fd5b505050506040513d601f19601f8201168201806040525081019061104d91906134d1565b61106a57604051636448d6e960e11b815260040160405180910390fd5b6001546040516370a0823160e01b81526001600160a01b0391821660048201526000918316906370a0823190602401602060405180830381865afa1580156110b6573d6000803e3d6000fd5b505050506040513d601f19601f820116820180604052508101906110da91906135da565b11156110f95760405163bfdb980760e01b815260040160405180910390fd5b6001546040516307617a5760e31b81526001600160a01b03838116600483015290911690633b0bd2b8906024015b600060405180830381600087803b15801561114157600080fd5b505af1158015611155573d6000803e3d6000fd5b5050505050565b60025460408051631d9e2b2760e11b815290516000926001600160a01b031691633b3c564e916004808301926020929190829003018187875af11580156111a7573d6000803e3d6000fd5b505050506040513d601f19601f820116820180604052508101906111cb91906135da565b905090565b600154604080516365f13c7f60e11b815290516000926001600160a01b0316918391839163cbe278fe91600480830192869291908290030181865afa15801561121d573d6000803e3d6000fd5b505050506040513d6000823e601f3d908101601f1916820160405261124591908101906136ce565b905080516000036112595760009250505090565b6000815167ffffffffffffffff81111561127557611275613545565b60405190808252806020026020018201604052801561129e578160200160208202803683370190505b50905060005b825181101561135a578281815181106112bf576112bf6134bb565b60209081029190910101516040516370a0823160e01b81526001600160a01b038681166004830152909116906370a0823190602401602060405180830381865afa158015611311573d6000803e3d6000fd5b505050506040513d601f19601f8201168201806040525081019061133591906135da565b828281518110611347576113476134bb565b60209081029190910101526001016112a4565b5060405163e4f134c960e01b81526001600160a01b037f0000000000000000000000000000000000000000000000000000000000000000169063e4f134c9906113a99085908590600401613793565b602060405180830381865afa1580156113c6573d6000803e3d6000fd5b505050506040513d601f19601f820116820180604052508101906113ea91906135da565b935050505090565b6113fa6126c8565b604051633063e6e560e21b81526001600160a01b0382811660048301527f0000000000000000000000000000000000000000000000000000000000000000169063c18f9b9490602401602060405180830381865afa158015611460573d6000803e3d6000fd5b505050506040513d601f19601f8201168201806040525081019061148491906134d1565b61152f576040516347a9f81560e01b81526001600160a01b0382811660048301527f000000000000000000000000000000000000000000000000000000000000000016906347a9f81590602401602060405180830381865afa1580156114ee573d6000803e3d6000fd5b505050506040513d601f19601f8201168201806040525081019061151291906134d1565b61152f57604051636448d6e960e11b815260040160405180910390fd5b600154604051634bcecd7560e01b81526001600160a01b03838116600483015290911690634bcecd7590602401611127565b600254604051624c431f60e81b81526001600160a01b0383811660048301526000928392839290911690634c431f00906024016060604051808303816000875af11580156115b3573d6000803e3d6000fd5b505050506040513d601f19601f820116820180604052508101906115d791906137e9565b9250925092509193909250565b6115ec612a23565b600280546001600160a01b0319166001600160a01b0383169081179091556040519081527f41588c8c35dd9deaecfb4938566a7fd4c8d3930a7592dc01320d71911648993190602001610fca565b600154604051635c922ca560e01b81526001600160a01b0390911690635c922ca59061166e90869086908690600401613841565b600060405180830381600087803b15801561168857600080fd5b505af115801561169c573d6000803e3d6000fd5b50505050505050565b6000806116b06111d0565b9050806000036116cf576116c96305f5e10060016135bb565b91505090565b60025460408051630ee98e7160e31b815290516116c9926001600160a01b03169163774c73889160048083019260209291908290030181865afa15801561171a573d6000803e3d6000fd5b505050506040513d601f19601f8201168201806040525081019061173e91906135da565b610bc1836305f5e1006127e4565b6117546126c8565b6006829055600781905560408051838152602081018390527f3601783c567f0a7db6a45d3bad70846feb89265e2da5d51f332c92daa015216591015b60405180910390a15050565b60008054819081906001600160a01b03868116911614806118285750600154604051630e05545360e31b81526001600160a01b0387811660048301529091169063702aa298906024016020604051808303816000875af1158015611804573d6000803e3d6000fd5b505050506040513d601f19601f8201168201806040525081019061182891906134d1565b6118745760405162461bcd60e51b815260206004820152601760248201527f5573652056616c6964204465706f7369742041737365740000000000000000006044820152606401610f77565b600160009054906101000a90046001600160a01b03166001600160a01b031663a29d72a26040518163ffffffff1660e01b8152600401602060405180830381865afa1580156118c7573d6000803e3d6000fd5b505050506040513d601f19601f820116820180604052508101906118eb91906134d1565b801561196057506001546040516360d5121b60e11b81523360048201526001600160a01b039091169063c1aa243690602401602060405180830381865afa15801561193a573d6000803e3d6000fd5b505050506040513d601f19601f8201168201806040525081019061195e91906134d1565b155b1561197e5760405163d8a1790360e01b815260040160405180910390fd5b604051633063e6e560e21b81526001600160a01b0386811660048301527f0000000000000000000000000000000000000000000000000000000000000000169063c18f9b9490602401602060405180830381865afa1580156119e4573d6000803e3d6000fd5b505050506040513d601f19601f82011682018060405250810190611a0891906134d1565b15611b375760405163aba07be360e01b81526001600160a01b038681166004830152602482018690527f0000000000000000000000000000000000000000000000000000000000000000169063aba07be390604401602060405180830381865afa158015611a7a573d6000803e3d6000fd5b505050506040513d601f19601f82011682018060405250810190611a9e91906135da565b9050600160009054906101000a90046001600160a01b03166001600160a01b031663b59ee96c6040518163ffffffff1660e01b8152600401602060405180830381865afa158015611af3573d6000803e3d6000fd5b505050506040513d601f19601f82011682018060405250810190611b1791906135da565b811015611b375760405163d2c7f1b160e01b815260040160405180910390fd5b6000611b4161220d565b600154909150600090611b6190889033906001600160a01b031689612a9b565b9050858114611db457604051633063e6e560e21b81526001600160a01b0388811660048301527f0000000000000000000000000000000000000000000000000000000000000000169063c18f9b9490602401602060405180830381865afa158015611bd0573d6000803e3d6000fd5b505050506040513d601f19601f82011682018060405250810190611bf491906134d1565b15611c915760405163aba07be360e01b81526001600160a01b038881166004830152602482018390527f0000000000000000000000000000000000000000000000000000000000000000169063aba07be390604401602060405180830381865afa158015611c66573d6000803e3d6000fd5b505050506040513d601f19601f82011682018060405250810190611c8a91906135da565b9250611db4565b6040516347a9f81560e01b81526001600160a01b0388811660048301527f000000000000000000000000000000000000000000000000000000000000000016906347a9f81590602401602060405180830381865afa158015611cf7573d6000803e3d6000fd5b505050506040513d601f19601f82011682018060405250810190611d1b91906134d1565b15611db457604051633034c69b60e21b81526001600160a01b038881166004830152602482018390527f0000000000000000000000000000000000000000000000000000000000000000169063c0d31a6c90604401602060405180830381865afa158015611d8d573d6000803e3d6000fd5b505050506040513d601f19601f82011682018060405250810190611db191906135da565b92505b6000611dc083856121b0565b9050611dd0338983868887612ba1565b95509550505050505b9250929050565b611de86126c8565b600581905560025460405163acda253160e01b8152600481018490526001600160a01b039091169063acda253190602401600060405180830381600087803b158015611e3357600080fd5b505af1158015611e47573d6000803e3d6000fd5b505050507fc0afc843b08a3049dd8598f602fe34b73f58db30c251974f332dcc72c5aa057082600554604051611790929190918252602082015260400190565b6000806000611e946126c8565b60008060007f00000000000000000000000000000000000000000000000000000000000000006007541115611edc5760405163b49de9a560e01b815260040160405180910390fd5b6000611ee661220d565b6002546006546007546040516327db20bf60e11b8152600481019290925260248201526001600160a01b038b8116604483015260648201849052929350911690634fb6417e906084016060604051808303816000875af1158015611f4e573d6000803e3d6000fd5b505050506040513d601f19601f82011682018060405250810190611f7291906137e9565b6006546007546040805187815260208101939093528201526001600160a01b038c1660608201526080810184905260a0810183905260c0810182905292965090945092507f18ab590e795170a4be36fe4a7dc8a048b9a6084445864b32a0a5e29f40184b0a9060e00160405180910390a1505050509193909250565b611ff66126c8565b60005b8181101561217d576001546001600160a01b031663702aa298848484818110612024576120246134bb565b90506020020160208101906120399190613399565b6040516001600160e01b031960e084901b1681526001600160a01b0390911660048201526024016020604051808303816000875af115801561207f573d6000803e3d6000fd5b505050506040513d601f19601f820116820180604052508101906120a391906134d1565b6120c057604051636448d6e960e11b815260040160405180910390fd5b60008383838181106120d4576120d46134bb565b90506020020160208101906120e99190613399565b6001546040516370a0823160e01b81526001600160a01b0391821660048201529116906370a0823190602401602060405180830381865afa158015612132573d6000803e3d6000fd5b505050506040513d601f19601f8201168201806040525081019061215691906135da565b11156121755760405163bfdb980760e01b815260040160405180910390fd5b600101611ff9565b506001546040516352a12fab60e11b81526001600160a01b039091169063a5425f56906107c19085908590600401613531565b6000816000036121d357604051631bf1f55760e11b815260040160405180910390fd5b826000036121f45760405163e5dd50c360e01b815260040160405180910390fd5b61220683610bc1846305f5e1006127e4565b9392505050565b60006111cb6116a5565b60006122216126f5565b6008805461ff0019166101001790556000808085810361225457604051638c88122d60e01b815260040160405180910390fd5b60025460405163cee2a9cf60e01b81523360048201526001600160a01b039091169063cee2a9cf90602401602060405180830381865afa15801561229c573d6000803e3d6000fd5b505050506040513d601f19601f820116820180604052508101906122c091906134d1565b6122dd5760405163f3cf237760e01b815260040160405180910390fd5b604051633063e6e560e21b81526001600160a01b0386811660048301527f0000000000000000000000000000000000000000000000000000000000000000169063c18f9b9490602401602060405180830381865afa158015612343573d6000803e3d6000fd5b505050506040513d601f19601f8201168201806040525081019061236791906134d1565b1580156123e15750600154604051630e05545360e31b81526001600160a01b0387811660048301529091169063702aa298906024016020604051808303816000875af11580156123bb573d6000803e3d6000fd5b505050506040513d601f19601f820116820180604052508101906123df91906134d1565b155b156123ff57604051636448d6e960e11b815260040160405180910390fd5b600061240961220d565b9050600061241f6305f5e100610bc1848b6135bb565b60405163912a55fd60e01b8152600481018290526001600160a01b0389811660248301529192506000917f0000000000000000000000000000000000000000000000000000000000000000169063912a55fd90604401602060405180830381865afa158015612492573d6000803e3d6000fd5b505050506040513d601f19601f820116820180604052508101906124b691906135da565b6001546040516370a0823160e01b81526001600160a01b039182166004820152919250600091908a16906370a0823190602401602060405180830381865afa158015612506573d6000803e3d6000fd5b505050506040513d601f19601f8201168201806040525081019061252a91906135da565b90508082111561254d57604051633284137160e01b815260040160405180910390fd5b61255a8a8a8660006127fc565b604080518281526001600160a01b038c16602082015291995033918c917f8aa15e17a23d97b5c4890508762121fc2a713cdee1b8aad3baa7ac340bb4fb5f910160405180910390a3505050505050506008805461ff001916905592915050565b6000546001600160a01b03161515806125dd57506003546001600160a01b031615155b156125fa5760405162dc149f60e41b815260040160405180910390fd5b600080546001600160a01b039283166001600160a01b03199182161790915560038054939092169216919091179055565b6126336126c8565b600154604051631ec33ffb60e31b81526001600160a01b039091169063f619ffd8906126659085908590600401613531565b600060405180830381600087803b15801561267f57600080fd5b505af1158015612693573d6000803e3d6000fd5b505050507f47ea8dc565835232cdd2448eef508077f63295b12a6f92c0ed7153f1aefa887f8282604051611790929190613531565b6003546001600160a01b031633146126f357604051633006171960e21b815260040160405180910390fd5b565b600854610100900460ff16156126f35760405162461bcd60e51b815260206004820152600b60248201526a52652d656e7472616e636560a81b6044820152606401610f77565b6000600182511161274e57506001919050565b815160005b818110156127da57600061276882600161386b565b90505b828110156127d157848181518110612785576127856134bb565b60200260200101516001600160a01b03168583815181106127a8576127a86134bb565b60200260200101516001600160a01b0316036127c957506000949350505050565b60010161276b565b50600101612753565b5060019392505050565b600061220682846135bb565b60006122068284613883565b6002546040516383c52af560e01b8152336004820152602481018490526044810186905260009182918291829182916001600160a01b0316906383c52af5906064016080604051808303816000875af115801561285d573d6000803e3d6000fd5b505050506040513d601f19601f8201168201806040525081019061288191906138a5565b919650945092509050600061289e6305f5e100610bc18a856135bb565b60405163912a55fd60e01b8152600481018290526001600160a01b038b811660248301529192506000917f0000000000000000000000000000000000000000000000000000000000000000169063912a55fd90604401602060405180830381865afa158015612911573d6000803e3d6000fd5b505050506040513d601f19601f8201168201806040525081019061293591906135da565b600154604080516001600160a01b038e8116602083015233828401526060808301869052835180840390910181526080830193849052635c922ca560e01b9093529394509290911691635c922ca5916129949160029190608401613933565b600060405180830381600087803b1580156129ae57600080fd5b505af11580156129c2573d6000803e3d6000fd5b50505050336001600160a01b03167ff9bfb5a620daa2b61fc70fff6ceab968cd3dec18451a13c9aa4de24170ab3c29898b8e8e868c8c8c604051612a0d989796959493929190613953565b60405180910390a29a9950505050505050505050565b336001600160a01b037f000000000000000000000000000000000000000000000000000000000000000016146126f35760405162461bcd60e51b815260206004820152601a60248201527f4f6e6c792046756e644465706c6f7965722063616c6c61626c650000000000006044820152606401610f77565b6040516370a0823160e01b81526001600160a01b03838116600483015260009182918716906370a0823190602401602060405180830381865afa158015612ae6573d6000803e3d6000fd5b505050506040513d601f19601f82011682018060405250810190612b0a91906135da565b9050612b216001600160a01b038716868686612e32565b6040516370a0823160e01b81526001600160a01b038581166004830152612b979183918916906370a0823190602401602060405180830381865afa158015612b6d573d6000803e3d6000fd5b505050506040513d601f19601f82011682018060405250810190612b9191906135da565b90612e92565b9695505050505050565b600080612bac6126f5565b6008805461ff001916610100179055612bc3612e9e565b6008805460ff191660011790556000808088612c175760405162461bcd60e51b815260206004820152601360248201527207175616e74697479206d757374206265203e3606c1b6044820152606401610f77565b60025460405163cee2a9cf60e01b81526001600160a01b038d81166004830152600092169063cee2a9cf90602401602060405180830381865afa158015612c62573d6000803e3d6000fd5b505050506040513d601f19601f82011682018060405250810190612c8691906134d1565b15612d1c5760025460405163dc35beb360e01b81526001600160a01b038e81166004830152602482018d9052604482018b9052606482018c90529091169063dc35beb3906084016060604051808303816000875af1158015612cec573d6000803e3d6000fd5b505050506040513d601f19601f82011682018060405250810190612d1091906137e9565b91955093509150612da4565b600254604051637c82c5a960e11b81526001600160a01b038e81166004830152602482018c9052604482018d9052606482018b90529091169063f9058b52906084016020604051808303816000875af1158015612d7d573d6000803e3d6000fd5b505050506040513d601f19601f82011682018060405250810190612da191906135da565b90505b604080518a8152602081018a90529081018b90526001600160a01b038c811660608301526080820189905260a0820186905260c0820185905260e082018490528d16907f1af4b6a1803e199b652eccc223b570455e136b7f8b1d00a8d1c22011da62787e906101000160405180910390a26008805461ffff19169055969b969a509598505050505050505050565b604080516001600160a01b0385811660248301528416604482015260648082018490528251808303909101815260849091019091526020810180516001600160e01b03166323b872dd60e01b179052612e8c908590612ef1565b50505050565b600061220682846135f3565b60085460ff16156126f35760405162461bcd60e51b815260206004820152601860248201527f5661756c7420616374696f6e2072652d656e7472616e636500000000000000006044820152606401610f77565b6000612f46826040518060400160405280602081526020017f5361666545524332303a206c6f772d6c6576656c2063616c6c206661696c6564815250856001600160a01b0316612fc89092919063ffffffff16565b805190915015612fc35780806020019051810190612f6491906134d1565b612fc35760405162461bcd60e51b815260206004820152602a60248201527f5361666545524332303a204552433230206f7065726174696f6e20646964206e6044820152691bdd081cdd58d8d9595960b21b6064820152608401610f77565b505050565b6060612fd78484600085612fdf565b949350505050565b6060824710156130405760405162461bcd60e51b815260206004820152602660248201527f416464726573733a20696e73756666696369656e742062616c616e636520666f6044820152651c8818d85b1b60d21b6064820152608401610f77565b6001600160a01b0385163b6130975760405162461bcd60e51b815260206004820152601d60248201527f416464726573733a2063616c6c20746f206e6f6e2d636f6e74726163740000006044820152606401610f77565b600080866001600160a01b031685876040516130b391906139a7565b60006040518083038185875af1925050503d80600081146130f0576040519150601f19603f3d011682016040523d82523d6000602084013e6130f5565b606091505b5091509150613105828286613110565b979650505050505050565b6060831561311f575081612206565b82511561312f5782518084602001fd5b8160405162461bcd60e51b8152600401610f7791906139c3565b60008060006060848603121561315e57600080fd5b505081359360208301359350604090920135919050565b60006020828403121561318757600080fd5b5035919050565b60008083601f8401126131a057600080fd5b50813567ffffffffffffffff8111156131b857600080fd5b6020830191508360208260051b8501011115611dd957600080fd5b600080602083850312156131e657600080fd5b823567ffffffffffffffff8111156131fd57600080fd5b6132098582860161318e565b90969095509350505050565b60008060008060006060868803121561322d57600080fd5b85359450602086013567ffffffffffffffff8082111561324c57600080fd5b61325889838a0161318e565b9096509450604088013591508082111561327157600080fd5b5061327e8882890161318e565b969995985093965092949392505050565b600081518084526020808501945080840160005b838110156132bf578151875295820195908201906001016132a3565b509495945050505050565b602081526000612206602083018461328f565b6001600160a01b03811681146132f257600080fd5b50565b60008083601f84011261330757600080fd5b50813567ffffffffffffffff81111561331f57600080fd5b602083019150836020828501011115611dd957600080fd5b60008060008060006080868803121561334f57600080fd5b853561335a816132dd565b9450602086013561336a816132dd565b935060408601359250606086013567ffffffffffffffff81111561338d57600080fd5b61327e888289016132f5565b6000602082840312156133ab57600080fd5b8135612206816132dd565b6000806000604084860312156133cb57600080fd5b8335600381106133da57600080fd5b9250602084013567ffffffffffffffff8111156133f657600080fd5b613402868287016132f5565b9497909650939450505050565b6000806040838503121561342257600080fd5b50508035926020909101359150565b6000806040838503121561344457600080fd5b823561344f816132dd565b946020939093013593505050565b6000806040838503121561347057600080fd5b823591506020830135613482816132dd565b809150509250929050565b600080604083850312156134a057600080fd5b82356134ab816132dd565b91506020830135613482816132dd565b634e487b7160e01b600052603260045260246000fd5b6000602082840312156134e357600080fd5b8151801515811461220657600080fd5b8183526000602080850194508260005b858110156132bf578135613516816132dd565b6001600160a01b031687529582019590820190600101613503565b602081526000612fd76020830184866134f3565b634e487b7160e01b600052604160045260246000fd5b60006020828403121561356d57600080fd5b813561ffff8116811461220657600080fd5b634e487b7160e01b600052601160045260246000fd5b600061ffff8083168185168083038211156135b2576135b261357f565b01949350505050565b60008160001904831182151516156135d5576135d561357f565b500290565b6000602082840312156135ec57600080fd5b5051919050565b6000828210156136055761360561357f565b500390565b600060ff821660ff81036136205761362061357f565b60010192915050565b60608152600061363d6060830186886134f3565b828103602084015261364f818661328f565b91505082604083015295945050505050565b81835281816020850137506000828201602090810191909152601f909101601f19169091010190565b6001600160a01b03868116825285166020820152604081018490526080606082018190526000906131059083018486613661565b80516136c9816132dd565b919050565b600060208083850312156136e157600080fd5b825167ffffffffffffffff808211156136f957600080fd5b818501915085601f83011261370d57600080fd5b81518181111561371f5761371f613545565b8060051b604051601f19603f8301168101818110858211171561374457613744613545565b60405291825284820192508381018501918883111561376257600080fd5b938501935b8285101561378757613778856136be565b84529385019392850192613767565b98975050505050505050565b604080825283519082018190526000906020906060840190828701845b828110156137d55781516001600160a01b0316845292840192908401906001016137b0565b50505083810382850152612b97818661328f565b6000806000606084860312156137fe57600080fd5b8351925060208401519150604084015190509250925092565b634e487b7160e01b600052602160045260246000fd5b6003811061383d5761383d613817565b9052565b61384b818561382d565b604060208201526000613862604083018486613661565b95945050505050565b6000821982111561387e5761387e61357f565b500190565b6000826138a057634e487b7160e01b600052601260045260246000fd5b500490565b600080600080608085870312156138bb57600080fd5b505082516020840151604085015160609095015191969095509092509050565b60005b838110156138f65781810151838201526020016138de565b83811115612e8c5750506000910152565b6000815180845261391f8160208601602086016138db565b601f01601f19169290920160200192915050565b61393d818461382d565b604060208201526000612fd76040830184613907565b610100810160028a1061396857613968613817565b988152602081019790975260408701959095526001600160a01b03939093166060860152608085019190915260a084015260c083015260e09091015290565b600082516139b98184602087016138db565b9190910192915050565b602081526000612206602083018461390756fea2646970667358221220ee66e358d14c801b858bcc413882675a2307d0ae2c8e0c832a2f29f75a56053f64736f6c634300080f0033",
    "linkReferences": {}
  },
  "methodIdentifiers": {
    "ASSET_REGISTRY()": "514ef8dd",
    "PRICE_AGGREGATOR()": "f24e4f34",
    "VaultAction(uint8,bytes)": "4d34e06d",
    "addDepositAsset(address)": "4bcecd75",
    "addDepositAssetBulk(address[])": "305664cc",
    "assetDenomination()": "08eec1df",
    "buyShares(address,uint256)": "6945b123",
    "calculateNetValueUSD()": "3c70158d",
    "calculateSharePrice()": "c6505c03",
    "calculateShares(uint256,uint256)": "b3c740e8",
    "callExtension(address,address,uint256,bytes)": "36e5900b",
    "claimPerfManagementFeeBps(address)": "9265660b",
    "fundManager()": "6209ec2d",
    "getDispatcher()": "ebb3d589",
    "getFundDeployer()": "97c0ac87",
    "getFundManagerShares()": "3b3c564e",
    "getInvestorInvestments(address)": "4c431f00",
    "getSharePrice()": "5b1dac60",
    "getTokenProxy()": "9f2cad38",
    "init(address,address)": "f09a4016",
    "managementFeeBps()": "3813c35a",
    "performanceFeeBps()": "b9d4e879",
    "redeemSharesInKind(uint256,address[],uint16[])": "30ca43e8",
    "redeemSharesSingleAsset(uint256,address)": "ddfb0be4",
    "redemptionFeesBps()": "4b2f817c",
    "removeDepositAsset(address)": "3b0bd2b8",
    "removeDepositAssetBulk(address[])": "a5425f56",
    "setAllowedInvestors(address[])": "f619ffd8",
    "setFeePolicy(uint256,uint256)": "5ddf123e",
    "setProfitFeeSlab(uint256,uint256,uint256)": "065b43bf",
    "setSharePrice(uint256)": "16b60249",
    "setTokenProxy(address)": "4ccbeaf8",
    "setVaultProxy(address)": "397bfe55",
    "setWithdrawalPolicy(uint256,uint256)": "88fbedb3",
    "sharePrice()": "87269729",
    "tokenProxy()": "7f11d33f",
    "vaultProxy()": "893a5372"
  },
  "id": 49
}