{
  "abi": [
    {
      "inputs": [
        {
          "internalType": "address",
          "name": "_dispatcher",
          "type": "address"
        }
      ],
      "stateMutability": "nonpayable",
      "type": "constructor"
    },
    {
      "anonymous": false,
      "inputs": [
        {
          "indexed": false,
          "internalType": "address",
          "name": "comptrollerLogic",
          "type": "address"
        }
      ],
      "name": "ComptrollerLogicSet",
      "type": "event"
    },
    {
      "anonymous": false,
      "inputs": [
        {
          "indexed": true,
          "internalType": "address",
          "name": "creator",
          "type": "address"
        },
        {
          "indexed": false,
          "internalType": "address",
          "name": "comptrollerProxy",
          "type": "address"
        },
        {
          "indexed": true,
          "internalType": "address",
          "name": "denomintaionAsset",
          "type": "address"
        }
      ],
      "name": "NewComptrollerDeployed",
      "type": "event"
    },
    {
      "anonymous": false,
      "inputs": [
        {
          "indexed": true,
          "internalType": "address",
          "name": "creator",
          "type": "address"
        },
        {
          "indexed": true,
          "internalType": "address",
          "name": "vaultProxy",
          "type": "address"
        },
        {
          "indexed": true,
          "internalType": "address",
          "name": "comptrollerProxy",
          "type": "address"
        },
        {
          "indexed": false,
          "internalType": "address",
          "name": "tokenProxy",
          "type": "address"
        },
        {
          "indexed": false,
          "internalType": "string",
          "name": "vaultFundName",
          "type": "string"
        },
        {
          "indexed": false,
          "internalType": "bool",
          "name": "fundType",
          "type": "bool"
        },
        {
          "indexed": false,
          "internalType": "uint256",
          "name": "fundDepositLimit",
          "type": "uint256"
        }
      ],
      "name": "NewFundCreated",
      "type": "event"
    },
    {
      "anonymous": false,
      "inputs": [
        {
          "indexed": false,
          "internalType": "address",
          "name": "governanceContract",
          "type": "address"
        }
      ],
      "name": "ProtocolGovernanceContractSet",
      "type": "event"
    },
    {
      "anonymous": false,
      "inputs": [
        {
          "indexed": false,
          "internalType": "address",
          "name": "tokenLogic",
          "type": "address"
        }
      ],
      "name": "TokenLogicSet",
      "type": "event"
    },
    {
      "anonymous": false,
      "inputs": [
        {
          "indexed": false,
          "internalType": "address",
          "name": "tokenProxy",
          "type": "address"
        }
      ],
      "name": "TokenProxyDeployed",
      "type": "event"
    },
    {
      "anonymous": false,
      "inputs": [
        {
          "indexed": false,
          "internalType": "address",
          "name": "vaultLogic",
          "type": "address"
        }
      ],
      "name": "VaultLogicSet",
      "type": "event"
    },
    {
      "inputs": [
        {
          "internalType": "address",
          "name": "_fundOwner",
          "type": "address"
        },
        {
          "internalType": "string",
          "name": "_fundName",
          "type": "string"
        },
        {
          "internalType": "address",
          "name": "_denominationAsset",
          "type": "address"
        },
        {
          "internalType": "bool",
          "name": "_isPrivateFund",
          "type": "bool"
        },
        {
          "internalType": "uint256",
          "name": "_fundDepositLimit",
          "type": "uint256"
        }
      ],
      "name": "createNewFund",
      "outputs": [
        {
          "internalType": "address",
          "name": "comptrollerProxy",
          "type": "address"
        },
        {
          "internalType": "address",
          "name": "vaultProxy",
          "type": "address"
        },
        {
          "internalType": "address",
          "name": "tokenProxy",
          "type": "address"
        }
      ],
      "stateMutability": "nonpayable",
      "type": "function"
    },
    {
      "inputs": [],
      "name": "denominationAsset",
      "outputs": [
        {
          "internalType": "address",
          "name": "",
          "type": "address"
        }
      ],
      "stateMutability": "view",
      "type": "function"
    },
    {
      "inputs": [],
      "name": "getComptrollerLogic",
      "outputs": [
        {
          "internalType": "address",
          "name": "",
          "type": "address"
        }
      ],
      "stateMutability": "view",
      "type": "function"
    },
    {
      "inputs": [],
      "name": "getDispatcher",
      "outputs": [
        {
          "internalType": "address",
          "name": "",
          "type": "address"
        }
      ],
      "stateMutability": "view",
      "type": "function"
    },
    {
      "inputs": [],
      "name": "getTokenLogic",
      "outputs": [
        {
          "internalType": "address",
          "name": "",
          "type": "address"
        }
      ],
      "stateMutability": "view",
      "type": "function"
    },
    {
      "inputs": [],
      "name": "getVaultLogic",
      "outputs": [
        {
          "internalType": "address",
          "name": "",
          "type": "address"
        }
      ],
      "stateMutability": "view",
      "type": "function"
    },
    {
      "inputs": [
        {
          "internalType": "address",
          "name": "_comptrollerLogic",
          "type": "address"
        }
      ],
      "name": "setComptrollerLogic",
      "outputs": [],
      "stateMutability": "nonpayable",
      "type": "function"
    },
    {
      "inputs": [
        {
          "internalType": "address",
          "name": "_manager",
          "type": "address"
        }
      ],
      "name": "setManager",
      "outputs": [],
      "stateMutability": "nonpayable",
      "type": "function"
    },
    {
      "inputs": [
        {
          "internalType": "address",
          "name": "_governanceContract",
          "type": "address"
        }
      ],
      "name": "setProtocolGovernanceContract",
      "outputs": [],
      "stateMutability": "nonpayable",
      "type": "function"
    },
    {
      "inputs": [
        {
          "internalType": "address",
          "name": "_tokenLogic",
          "type": "address"
        }
      ],
      "name": "setTokenLogic",
      "outputs": [],
      "stateMutability": "nonpayable",
      "type": "function"
    },
    {
      "inputs": [
        {
          "internalType": "address",
          "name": "_vaultLogic",
          "type": "address"
        }
      ],
      "name": "setVaultLogic",
      "outputs": [],
      "stateMutability": "nonpayable",
      "type": "function"
    },
    {
      "inputs": [],
      "name": "vaultFundName",
      "outputs": [
        {
          "internalType": "string",
          "name": "",
          "type": "string"
        }
      ],
      "stateMutability": "view",
      "type": "function"
    }
  ],
  "bytecode": {
    "object": "0x608060405234801561001057600080fd5b506040516114a53803806114a583398101604081905261002f9161005d565b600280546001600160a01b039092166001600160a01b0319928316179055600380549091163317905561008d565b60006020828403121561006f57600080fd5b81516001600160a01b038116811461008657600080fd5b9392505050565b6114098061009c6000396000f3fe60806040523480156200001157600080fd5b5060043610620000c35760003560e01c806390ece5d1116200007a57806390ece5d1146200018f578063c2ce0d5614620001a8578063c800ed8014620001bf578063d0ebdbe714620001d1578063ebb3d58914620001e8578063ecedd5bc14620001fa57600080fd5b80630366296c14620000c85780633a3d523f146200010e57806342856c0c1462000127578063569a03bf146200013e57806370146f13146200016b5780637d15cb5b146200017d575b600080fd5b620000df620000d93660046200099a565b62000211565b604080516001600160a01b03948516815292841660208401529216918101919091526060015b60405180910390f35b620001256200011f36600462000a56565b620004b9565b005b620001256200013836600462000a56565b62000544565b60015462000152906001600160a01b031681565b6040516001600160a01b03909116815260200162000105565b6006546001600160a01b031662000152565b6005546001600160a01b031662000152565b62000199620005c0565b60405162000105919062000acd565b62000125620001b936600462000a56565b62000656565b6007546001600160a01b031662000152565b62000125620001e236600462000a56565b620006d2565b6002546001600160a01b031662000152565b620001256200020b36600462000a56565b62000721565b60008060006200022289876200079d565b9250620002376002546001600160a01b031690565b6006546040516308b6eb5d60e41b81526001600160a01b0391821660048201528b821660248201528582166044820152871515606482015260848101879052911690638b6eb5d09060a4016020604051808303816000875af1158015620002a2573d6000803e3d6000fd5b505050506040513d601f19601f82011682018060405250810190620002c8919062000ae2565b60405163397bfe5560e01b81526001600160a01b0380831660048301529193509084169063397bfe5590602401600060405180830381600087803b1580156200031057600080fd5b505af115801562000325573d6000803e3d6000fd5b50506004805460405163015bc15b60e61b81526001600160a01b03888116938201939093528683166024820152911692506356f056c09150604401600060405180830381600087803b1580156200037b57600080fd5b505af115801562000390573d6000803e3d6000fd5b5050600754600854620003b493506001600160a01b03918216925016858c62000878565b6040516309997d5f60e31b81526001600160a01b03808316600483015291925090841690634ccbeaf890602401600060405180830381600087803b158015620003fc57600080fd5b505af115801562000411573d6000803e3d6000fd5b50600092506200042791508990508a8362000ba7565b5085600160006101000a8154816001600160a01b0302191690836001600160a01b03160217905550826001600160a01b0316826001600160a01b03168a6001600160a01b03167f27d19a380b046bd891a80b768a086404c0963bad7a88f76a90d5643d8599c69b8460008a8a604051620004a5949392919062000c75565b60405180910390a496509650969350505050565b6003546001600160a01b03163314620004ef5760405162461bcd60e51b8152600401620004e69062000d2f565b60405180910390fd5b600780546001600160a01b0319166001600160a01b0383169081179091556040519081527f1de954cd8dd5fa32f2237e6c3f6eeda915f368281c59a0f84a6ebae7672668f0906020015b60405180910390a150565b6003546001600160a01b03163314620005715760405162461bcd60e51b8152600401620004e69062000d2f565b600880546001600160a01b0319166001600160a01b0383169081179091556040519081527f710abb61ce27e2d3038a3e6bf241b392986abee7078b96d24c05d6eea72b3f739060200162000539565b60008054620005cf9062000b18565b80601f0160208091040260200160405190810160405280929190818152602001828054620005fd9062000b18565b80156200064e5780601f1062000622576101008083540402835291602001916200064e565b820191906000526020600020905b8154815290600101906020018083116200063057829003601f168201915b505050505081565b6003546001600160a01b03163314620006835760405162461bcd60e51b8152600401620004e69062000d2f565b600580546001600160a01b0319166001600160a01b0383169081179091556040519081527f340c6a4bd048bab50a34f394f7517e3b5daf5c271cd2eb396387ce37550192de9060200162000539565b6003546001600160a01b03163314620006ff5760405162461bcd60e51b8152600401620004e69062000d2f565b600480546001600160a01b0319166001600160a01b0392909216919091179055565b6003546001600160a01b031633146200074e5760405162461bcd60e51b8152600401620004e69062000d2f565b600680546001600160a01b0319166001600160a01b0383169081179091556040519081527f4ac755185fcda7b09dacdefc669e80566b1435631561bd6cada6f8cdcbcf8ebd9060200162000539565b604080516001600160a01b03848116602483015283811660448084019190915283518084039091018152606490920183526020820180516001600160e01b031663784d200b60e11b179052600554925160009383921690620007ff906200094f565b6200080c92919062000d5e565b604051809103906000f08015801562000829573d6000803e3d6000fd5b506040516001600160a01b038083168252919350818516918616907fca390483ae30318704195bcd9b9a25a6768a3c90c5f2ffb316f65cf0dbd0e6bc9060200160405180910390a35092915050565b604080516001600160a01b0383811660248301528581166044830152841660648083019190915282518083039091018152608490910182526020810180516001600160e01b031663c0c53b8b60e01b1790529051600091908690620008dd906200095d565b620008ea92919062000d5e565b604051809103906000f08015801562000907573d6000803e3d6000fd5b506040516001600160a01b03821681529091507fb20c9670f852fa6da7885afe258563d0f236d8650b591d9632ac007a3f43e2489060200160405180910390a1949350505050565b6102fe8062000d8b83390190565b61034b806200108983390190565b6001600160a01b03811681146200098157600080fd5b50565b803580151581146200099557600080fd5b919050565b60008060008060008060a08789031215620009b457600080fd5b8635620009c1816200096b565b9550602087013567ffffffffffffffff80821115620009df57600080fd5b818901915089601f830112620009f457600080fd5b81358181111562000a0457600080fd5b8a602082850101111562000a1757600080fd5b602083019750809650505050604087013562000a33816200096b565b925062000a436060880162000984565b9150608087013590509295509295509295565b60006020828403121562000a6957600080fd5b813562000a76816200096b565b9392505050565b6000815180845260005b8181101562000aa55760208185018101518683018201520162000a87565b8181111562000ab8576000602083870101525b50601f01601f19169290920160200192915050565b60208152600062000a76602083018462000a7d565b60006020828403121562000af557600080fd5b815162000a76816200096b565b634e487b7160e01b600052604160045260246000fd5b600181811c9082168062000b2d57607f821691505b60208210810362000b4e57634e487b7160e01b600052602260045260246000fd5b50919050565b601f82111562000ba257600081815260208120601f850160051c8101602086101562000b7d5750805b601f850160051c820191505b8181101562000b9e5782815560010162000b89565b5050505b505050565b67ffffffffffffffff83111562000bc25762000bc262000b02565b62000bda8362000bd3835462000b18565b8362000b54565b6000601f84116001811462000c11576000851562000bf85750838201355b600019600387901b1c1916600186901b17835562000c6e565b600083815260209020601f19861690835b8281101562000c44578685013582556020948501946001909201910162000c22565b508682101562000c625760001960f88860031b161c19848701351681555b505060018560011b0183555b5050505050565b60018060a01b0385168152600060206080818401526000865462000c998162000b18565b80608087015260a060018084166000811462000cbe576001811462000cd95762000d09565b60ff1985168984015283151560051b89018301955062000d09565b8b6000528660002060005b8581101562000d015781548b820186015290830190880162000ce4565b8a0184019650505b50505050861515604086015250915062000d209050565b82606083015295945050505050565b60208082526015908201527427b7363c9020b63637bbb2b2103a379027bbb732b960591b604082015260600190565b60408152600062000d73604083018562000a7d565b905060018060a01b0383166020830152939250505056fe60a060405234801561001057600080fd5b506040516102fe3803806102fe83398101604081905261002f91610155565b6001600160a01b03811660808190527ffb9110954940f76de12f38896dc4553b45e286f4c25e1cc0eab107f20f58da5e829055604051839183916000918291610079908690610214565b600060405180830381855af49150503d80600081146100b4576040519150601f19603f3d011682016040523d82523d6000602084013e6100b9565b606091505b50915091508181906100e75760405162461bcd60e51b81526004016100de9190610230565b60405180910390fd5b50505050505050610263565b634e487b7160e01b600052604160045260246000fd5b60005b8381101561012457818101518382015260200161010c565b83811115610133576000848401525b50505050565b80516001600160a01b038116811461015057600080fd5b919050565b6000806040838503121561016857600080fd5b82516001600160401b038082111561017f57600080fd5b818501915085601f83011261019357600080fd5b8151818111156101a5576101a56100f3565b604051601f8201601f19908116603f011681019083821181831017156101cd576101cd6100f3565b816040528281528860208487010111156101e657600080fd5b6101f7836020830160208801610109565b809650505050505061020b60208401610139565b90509250929050565b60008251610226818460208701610109565b9190910192915050565b602081526000825180602084015261024f816040850160208701610109565b601f01601f19169190910160400192915050565b608051608361027b60003960006006015260836000f3fe60806040527f00000000000000000000000000000000000000000000000000000000000000003660008037600080366000846127105a03f43d806000803e818015604857816000f35b816000fdfea2646970667358221220f96ca734d009841e6e54af2a22afe3c856d3fcdf344021993bb3ffb2cd252d7c64736f6c634300080f0033608060405234801561001057600080fd5b5060405161034b38038061034b83398101604081905261002f9161014c565b61003d565b60405180910390fd5b807fc601979eab1d6c689cc46bacda9f7a76384dde1db0b961c2925f7acb2b5de5ff55600080826001600160a01b03168460405161007b919061020b565b600060405180830381855af49150503d80600081146100b6576040519150601f19603f3d011682016040523d82523d6000602084013e6100bb565b606091505b50915091508181906100e05760405162461bcd60e51b81526004016100349190610227565b505050505061025a565b634e487b7160e01b600052604160045260246000fd5b60005b8381101561011b578181015183820152602001610103565b8381111561012a576000848401525b50505050565b80516001600160a01b038116811461014757600080fd5b919050565b6000806040838503121561015f57600080fd5b82516001600160401b038082111561017657600080fd5b818501915085601f83011261018a57600080fd5b81518181111561019c5761019c6100ea565b604051601f8201601f19908116603f011681019083821181831017156101c4576101c46100ea565b816040528281528860208487010111156101dd57600080fd5b6101ee836020830160208801610100565b809650505050505061020260208401610130565b90509250929050565b6000825161021d818460208701610100565b9190910192915050565b6020815260008251806020840152610246816040850160208701610100565b601f01601f19169190910160400192915050565b60e3806102686000396000f3fe608060405260043610601f5760003560e01c8063773b6a1614606e576025565b36602557005b7fc601979eab1d6c689cc46bacda9f7a76384dde1db0b961c2925f7acb2b5de5ff54600036818237808036818561270f195a01f491503d8082833e828015606a578183f35b8183fd5b348015607957600080fd5b507fc601979eab1d6c689cc46bacda9f7a76384dde1db0b961c2925f7acb2b5de60060405190815260200160405180910390f3fea26469706673582212204a941ce8173b6f86f883152660e97a636ed1759ba3ad42a4abdae444aa4f74e864736f6c634300080f0033a26469706673582212203502c80c217f87e638787e9fdd04622241c07ba12410116612ea2469ea12fbbe64736f6c634300080f0033",
    "linkReferences": {}
  },
  "methodIdentifiers": {
    "createNewFund(address,string,address,bool,uint256)": "0366296c",
    "denominationAsset()": "569a03bf",
    "getComptrollerLogic()": "7d15cb5b",
    "getDispatcher()": "ebb3d589",
    "getTokenLogic()": "c800ed80",
    "getVaultLogic()": "70146f13",
    "setComptrollerLogic(address)": "c2ce0d56",
    "setManager(address)": "d0ebdbe7",
    "setProtocolGovernanceContract(address)": "42856c0c",
    "setTokenLogic(address)": "3a3d523f",
    "setVaultLogic(address)": "ecedd5bc",
    "vaultFundName()": "90ece5d1"
  },
  "id": 52
}