{
  "abi": [
    {
      "inputs": [],
      "stateMutability": "nonpayable",
      "type": "constructor"
    },
    {
      "inputs": [],
      "name": "NotContract",
      "type": "error"
    },
    {
      "inputs": [],
      "name": "OnlyOwner",
      "type": "error"
    },
    {
      "inputs": [],
      "name": "WrongDeployer",
      "type": "error"
    },
    {
      "inputs": [],
      "name": "ZeroAddress",
      "type": "error"
    },
    {
      "anonymous": false,
      "inputs": [
        {
          "indexed": false,
          "internalType": "address",
          "name": "prevDeployer",
          "type": "address"
        },
        {
          "indexed": true,
          "internalType": "address",
          "name": "deployer",
          "type": "address"
        }
      ],
      "name": "DeployerSet",
      "type": "event"
    },
    {
      "anonymous": false,
      "inputs": [
        {
          "indexed": true,
          "internalType": "address",
          "name": "deployer",
          "type": "address"
        },
        {
          "indexed": true,
          "internalType": "address",
          "name": "fundOwner",
          "type": "address"
        },
        {
          "indexed": false,
          "internalType": "address",
          "name": "proxy",
          "type": "address"
        },
        {
          "indexed": false,
          "internalType": "address",
          "name": "comptroller",
          "type": "address"
        },
        {
          "indexed": false,
          "internalType": "address",
          "name": "vaultImplementation",
          "type": "address"
        }
      ],
      "name": "NewVaultDeployed",
      "type": "event"
    },
    {
      "inputs": [
        {
          "internalType": "address",
          "name": "vaultImplementation",
          "type": "address"
        },
        {
          "internalType": "address",
          "name": "fundOwner",
          "type": "address"
        },
        {
          "internalType": "address",
          "name": "comptroller",
          "type": "address"
        },
        {
          "internalType": "bool",
          "name": "_isPrivateFund",
          "type": "bool"
        },
        {
          "internalType": "uint256",
          "name": "fundDepositLimit",
          "type": "uint256"
        }
      ],
      "name": "deployNewVault",
      "outputs": [
        {
          "internalType": "address",
          "name": "vaultProxy",
          "type": "address"
        }
      ],
      "stateMutability": "nonpayable",
      "type": "function"
    },
    {
      "inputs": [
        {
          "internalType": "address",
          "name": "_newDeployer",
          "type": "address"
        }
      ],
      "name": "setDeployer",
      "outputs": [],
      "stateMutability": "nonpayable",
      "type": "function"
    }
  ],
  "bytecode": {
    "object": "0x608060405234801561001057600080fd5b50600180546001600160a01b0319163317905561074a806100326000396000f3fe608060405234801561001057600080fd5b50600436106100365760003560e01c80638b6eb5d01461003b578063962147351461006a575b600080fd5b61004e6100493660046102de565b61007f565b6040516001600160a01b03909116815260200160405180910390f35b61007d610078366004610341565b6101de565b005b600080546001600160a01b031633146100ab5760405163d5e1c72d60e01b815260040160405180910390fd5b833b6100ca57604051636f7c43f160e01b815260040160405180910390fd5b604080516001600160a01b03878116602483015286166044820152841515606482015260848082018590528251808303909101815260a490910182526020810180516001600160e01b0316635725a9f960e11b1790529051879061012d906102b5565b610138929190610363565b604051809103906000f080158015610154573d6000803e3d6000fd5b506001600160a01b0381811660008181526002602090815260409182902080546001600160a01b031916339081179091558251938452898516918401919091528a8416918301919091529293509087169082907f7426c67ed3edc8cdde5ee4dc4b0e0f9e1642523e3b5df3d7936e363f12a97e6f9060600160405180910390a35095945050505050565b6001546001600160a01b0316331461020957604051635fc483c560e01b815260040160405180910390fd5b6001600160a01b0381166102305760405163d92e233d60e01b815260040160405180910390fd5b803b61024f57604051636f7c43f160e01b815260040160405180910390fd5b6000546040516001600160a01b039182168152908216907f9f00477a7224dd6a6a421b4d1b36201ecc8f7396e3d2125129db5f6898bc37ba9060200160405180910390a2600080546001600160a01b0319166001600160a01b0392909216919091179055565b61034b806103ca83390190565b80356001600160a01b03811681146102d957600080fd5b919050565b600080600080600060a086880312156102f657600080fd5b6102ff866102c2565b945061030d602087016102c2565b935061031b604087016102c2565b92506060860135801515811461033057600080fd5b949793965091946080013592915050565b60006020828403121561035357600080fd5b61035c826102c2565b9392505050565b604081526000835180604084015260005b818110156103915760208187018101516060868401015201610374565b818111156103a3576000606083860101525b506001600160a01b0393909316602083015250601f91909101601f19160160600191905056fe608060405234801561001057600080fd5b5060405161034b38038061034b83398101604081905261002f9161014c565b61003d565b60405180910390fd5b807ffb9110954940f76de12f38896dc4553b45e286f4c25e1cc0eab107f20f58da5e55600080826001600160a01b03168460405161007b919061020b565b600060405180830381855af49150503d80600081146100b6576040519150601f19603f3d011682016040523d82523d6000602084013e6100bb565b606091505b50915091508181906100e05760405162461bcd60e51b81526004016100349190610227565b505050505061025a565b634e487b7160e01b600052604160045260246000fd5b60005b8381101561011b578181015183820152602001610103565b8381111561012a576000848401525b50505050565b80516001600160a01b038116811461014757600080fd5b919050565b6000806040838503121561015f57600080fd5b82516001600160401b038082111561017657600080fd5b818501915085601f83011261018a57600080fd5b81518181111561019c5761019c6100ea565b604051601f8201601f19908116603f011681019083821181831017156101c4576101c46100ea565b816040528281528860208487010111156101dd57600080fd5b6101ee836020830160208801610100565b809650505050505061020260208401610130565b90509250929050565b6000825161021d818460208701610100565b9190910192915050565b6020815260008251806020840152610246816040850160208701610100565b601f01601f19169190910160400192915050565b60e3806102686000396000f3fe608060405260043610601f5760003560e01c8063773b6a1614606e576025565b36602557005b7ffb9110954940f76de12f38896dc4553b45e286f4c25e1cc0eab107f20f58da5e54600036818237808036818561270f195a01f491503d8082833e828015606a578183f35b8183fd5b348015607957600080fd5b507ffb9110954940f76de12f38896dc4553b45e286f4c25e1cc0eab107f20f58da5f60405190815260200160405180910390f3fea2646970667358221220fbc0d1d2e43c80da3b6cd5ffcf9199d9d2d81aabf66d91a1c37be3603addf27c64736f6c634300080f0033a2646970667358221220209709d683a674c40dbd0f739334d28b0c792a69587c922b3d3fa31a22ba7caf64736f6c634300080f0033",
    "linkReferences": {}
  },
  "methodIdentifiers": {
    "deployNewVault(address,address,address,bool,uint256)": "8b6eb5d0",
    "setDeployer(address)": "96214735"
  },
  "id": 27
}