{
  "abi": [
    {
      "inputs": [
        {
          "internalType": "address",
          "name": "_deployer",
          "type": "address"
        }
      ],
      "stateMutability": "nonpayable",
      "type": "constructor"
    },
    {
      "anonymous": false,
      "inputs": [
        {
          "indexed": true,
          "internalType": "address",
          "name": "_externalContract",
          "type": "address"
        },
        {
          "indexed": true,
          "internalType": "address",
          "name": "_adapterContract",
          "type": "address"
        }
      ],
      "name": "ExternalAdapterPairAdded",
      "type": "event"
    },
    {
      "anonymous": false,
      "inputs": [
        {
          "indexed": true,
          "internalType": "address",
          "name": "comptrollerProxy",
          "type": "address"
        },
        {
          "indexed": true,
          "internalType": "address",
          "name": "adapter",
          "type": "address"
        },
        {
          "indexed": true,
          "internalType": "bytes4",
          "name": "selector",
          "type": "bytes4"
        },
        {
          "indexed": false,
          "internalType": "address[]",
          "name": "incomingAsset",
          "type": "address[]"
        },
        {
          "indexed": false,
          "internalType": "uint256[]",
          "name": "incomingAssetBalance",
          "type": "uint256[]"
        },
        {
          "indexed": false,
          "internalType": "address[]",
          "name": "outgoingAsset",
          "type": "address[]"
        },
        {
          "indexed": false,
          "internalType": "uint256[]",
          "name": "outgoingAssetBalance",
          "type": "uint256[]"
        }
      ],
      "name": "IntegrationCalledForVault",
      "type": "event"
    },
    {
      "anonymous": false,
      "inputs": [
        {
          "indexed": true,
          "internalType": "address",
          "name": "_comptrollerProxy",
          "type": "address"
        },
        {
          "indexed": true,
          "internalType": "address",
          "name": "_vaultProxy",
          "type": "address"
        }
      ],
      "name": "ProxyPairAdded",
      "type": "event"
    },
    {
      "inputs": [],
      "name": "DEPLOYER",
      "outputs": [
        {
          "internalType": "address",
          "name": "",
          "type": "address"
        }
      ],
      "stateMutability": "view",
      "type": "function"
    },
    {
      "inputs": [],
      "name": "Owner",
      "outputs": [
        {
          "internalType": "address",
          "name": "",
          "type": "address"
        }
      ],
      "stateMutability": "view",
      "type": "function"
    },
    {
      "inputs": [
        {
          "internalType": "address",
          "name": "_extContract",
          "type": "address"
        }
      ],
      "name": "getAdapter",
      "outputs": [
        {
          "internalType": "address",
          "name": "_adapter",
          "type": "address"
        }
      ],
      "stateMutability": "view",
      "type": "function"
    },
    {
      "inputs": [
        {
          "internalType": "address",
          "name": "_comptrollerProxy",
          "type": "address"
        }
      ],
      "name": "getVaultProxy",
      "outputs": [
        {
          "internalType": "address",
          "name": "_vaultProxy",
          "type": "address"
        }
      ],
      "stateMutability": "view",
      "type": "function"
    },
    {
      "inputs": [
        {
          "internalType": "address",
          "name": "_caller",
          "type": "address"
        },
        {
          "internalType": "address",
          "name": "_to",
          "type": "address"
        },
        {
          "internalType": "uint256",
          "name": "_actionID",
          "type": "uint256"
        },
        {
          "internalType": "bytes",
          "name": "_actionData",
          "type": "bytes"
        }
      ],
      "name": "receiveCallFromComptroller",
      "outputs": [],
      "stateMutability": "nonpayable",
      "type": "function"
    },
    {
      "inputs": [
        {
          "internalType": "address",
          "name": "_adapter",
          "type": "address"
        },
        {
          "internalType": "address",
          "name": "_extContract",
          "type": "address"
        }
      ],
      "name": "setValidatedAdapter",
      "outputs": [],
      "stateMutability": "nonpayable",
      "type": "function"
    },
    {
      "inputs": [
        {
          "internalType": "address",
          "name": "_comptrollerProxy",
          "type": "address"
        },
        {
          "internalType": "address",
          "name": "_vaultProxy",
          "type": "address"
        }
      ],
      "name": "setValidatedProxy",
      "outputs": [],
      "stateMutability": "nonpayable",
      "type": "function"
    }
  ],
  "bytecode": {
    "object": "0x608060405234801561001057600080fd5b5060405161164038038061164083398101604081905261002f9161005d565b600280546001600160a01b039092166001600160a01b0319928316179055600380549091163317905561008d565b60006020828403121561006f57600080fd5b81516001600160a01b038116811461008657600080fd5b9392505050565b6115a48061009c6000396000f3fe608060405234801561001057600080fd5b506004361061007d5760003560e01c8063808a30561161005b578063808a3056146100f2578063b4a99a4e14610105578063c157c57c14610118578063c1b8411a1461014457600080fd5b80630b97709b1461008257806321bc9961146100ca57806356f056c0146100df575b600080fd5b6100ae610090366004610ee4565b6001600160a01b039081166000908152602081905260409020541690565b6040516001600160a01b03909116815260200160405180910390f35b6100dd6100d8366004610f01565b610157565b005b6100dd6100ed366004610fa0565b610231565b6100dd610100366004610fa0565b6102ca565b6003546100ae906001600160a01b031681565b6100ae610126366004610ee4565b6001600160a01b039081166000908152600160205260409020541690565b6002546100ae906001600160a01b031681565b33600081815260208181526040808320546001600160a01b03898116855260019093529220549181169116806101c65760405162461bcd60e51b815260206004820152600f60248201526e24b73b30b634b21020b230b83a32b960891b60448201526064015b60405180910390fd5b6001600160a01b0382166102125760405162461bcd60e51b815260206004820152601360248201527224b73b30b634b21021b7b6b83a3937b63632b960691b60448201526064016101bd565b85600003610227576102278184848888610363565b5050505050505050565b6002546001600160a01b0316331461027c5760405162461bcd60e51b815260206004820152600e60248201526d24b73b30b634b21021b0b63632b960911b60448201526064016101bd565b6102868282610495565b806001600160a01b0316826001600160a01b03167f384325fb2e4a76241ef3308a44cac1a20aa147fafe69b056c95ef2af3496560460405160405180910390a35050565b6003546001600160a01b031633146103155760405162461bcd60e51b815260206004820152600e60248201526d24b73b30b634b21029b2b73232b960911b60448201526064016101bd565b61031f82826104e9565b816001600160a01b0316816001600160a01b03167f40fe40f97e78f62df9cc65fcafb62e1ab8d8e6dc72fecb95ca9bb4566d94b8a760405160405180910390a35050565b60008061037283850185611049565b915091506000876001600160a01b031663cbe31b2584846040518363ffffffff1660e01b81526004016103a692919061115a565b6000604051808303816000875af11580156103c5573d6000803e3d6000fd5b505050506040513d6000823e601f3d908101601f191682016040526103ed919081019061128b565b90506000806103fe83898b8d6105a9565b9150915061040e888b87876109d4565b60008061041f8b8b8e888888610aa3565b91509150866001600160e01b0319168c6001600160a01b03168c6001600160a01b03167f92543f0e4795b17d4f928c94b77b6f7bb6a7e51755dca44924cee423bb7372908860600151868a602001518760405161047f94939291906113e9565b60405180910390a4505050505050505050505050565b6001600160a01b0382166104a857600080fd5b6001600160a01b0381166104bb57600080fd5b6001600160a01b03918216600090815260208190526040902080546001600160a01b03191691909216179055565b6001600160a01b0382166105315760405162461bcd60e51b815260206004820152600f60248201526e496e76616c6964204164647265737360881b60448201526064016101bd565b6001600160a01b0381166105795760405162461bcd60e51b815260206004820152600f60248201526e496e76616c6964204164647265737360881b60448201526064016101bd565b6001600160a01b0390811660009081526001602052604090208054919092166001600160a01b0319909116179055565b606080856040015151866020015151146105f65760405162461bcd60e51b815260206004820152600e60248201526d0aadccae2eac2d84098cadccee8d60931b60448201526064016101bd565b856080015151866060015151146106405760405162461bcd60e51b815260206004820152600e60248201526d155b995c5d585b0813195b99da1d60921b60448201526064016101bd565b61064d8660200151610cd8565b6106895760405162461bcd60e51b815260206004820152600d60248201526c111d5c1b1a58d85d194814d95d609a1b60448201526064016101bd565b6106968660600151610cd8565b6106d25760405162461bcd60e51b815260206004820152600d60248201526c111d5c1b1a58d85d194814d95d609a1b60448201526064016101bd565b600086606001515167ffffffffffffffff8111156106f2576106f2610fd9565b60405190808252806020026020018201604052801561071b578160200160208202803683370190505b50905060005b8760600151518110156107e9578760600151818151811061074457610744611441565b60209081029190910101516040516370a0823160e01b81526001600160a01b038981166004830152909116906370a0823190602401602060405180830381865afa158015610796573d6000803e3d6000fd5b505050506040513d601f19601f820116820180604052508101906107ba9190611457565b8282815181106107cc576107cc611441565b6020908102919091010152806107e181611486565b915050610721565b50600087602001515167ffffffffffffffff81111561080a5761080a610fd9565b604051908082528060200260200182016040528015610833578160200160208202803683370190505b50905060005b8860200151518110156109c6578860200151818151811061085c5761085c611441565b60209081029190910101516040516370a0823160e01b81526001600160a01b038a81166004830152909116906370a0823190602401602060405180830381865afa1580156108ae573d6000803e3d6000fd5b505050506040513d601f19601f820116820180604052508101906108d29190611457565b8282815181106108e4576108e4611441565b60209081029190910101526001895160028111156109045761090461149f565b036109545761094f878a60200151838151811061092357610923611441565b6020026020010151888c60400151858151811061094257610942611441565b6020026020010151610d81565b6109b4565b6002895160028111156109695761096961149f565b036109b4576109b4878a60200151838151811061098857610988611441565b6020026020010151888c6040015185815181106109a7576109a7611441565b6020026020010151610e11565b806109be81611486565b915050610839565b509097909650945050505050565b600080846001600160a01b03168487856040516024016109f59291906114b5565b60408051601f198184030181529181526020820180516001600160e01b03166001600160e01b0319909416939093179092529051610a3391906114d9565b6000604051808303816000865af19150503d8060008114610a70576040519150601f19603f3d011682016040523d82523d6000602084013e610a75565b606091505b5091509150818190610a9a5760405162461bcd60e51b81526004016101bd91906114f5565b50505050505050565b60608084606001515167ffffffffffffffff811115610ac457610ac4610fd9565b604051908082528060200260200182016040528015610aed578160200160208202803683370190505b50915060005b856060015151811015610bd457610b4a858281518110610b1557610b15611441565b6020026020010151610b448a89606001518581518110610b3757610b37611441565b6020026020010151610e4b565b90610ec0565b838281518110610b5c57610b5c611441565b6020026020010181815250506000838281518110610b7c57610b7c611441565b602002602001015111610bc25760405162461bcd60e51b815260206004820152600e60248201526d125b9d985b1a5908105b5bdd5b9d60921b60448201526064016101bd565b80610bcc81611486565b915050610af3565b5084602001515167ffffffffffffffff811115610bf357610bf3610fd9565b604051908082528060200260200182016040528015610c1c578160200160208202803683370190505b50905060005b856020015151811015610ccc576000610c4b8988602001518481518110610b3757610b37611441565b9050848281518110610c5f57610c5f611441565b6020026020010151811015610cb957610c9a81868481518110610c8457610c84611441565b6020026020010151610ec090919063ffffffff16565b838381518110610cac57610cac611441565b6020026020010181815250505b5080610cc481611486565b915050610c22565b50965096945050505050565b60006001825111610ceb57506001919050565b815160005b81811015610d77576000610d05826001611508565b90505b82811015610d6e57848181518110610d2257610d22611441565b60200260200101516001600160a01b0316858381518110610d4557610d45611441565b60200260200101516001600160a01b031603610d6657506000949350505050565b600101610d08565b50600101610cf0565b5060019392505050565b604080516001600160a01b038581166020830152848116928201929092526060810183905290851690634d34e06d906000906080015b6040516020818303038152906040526040518363ffffffff1660e01b8152600401610de3929190611520565b600060405180830381600087803b158015610dfd57600080fd5b505af1158015610227573d6000803e3d6000fd5b604080516001600160a01b038581166020830152848116928201929092526060810183905290851690634d34e06d90600190608001610db7565b6040516370a0823160e01b81526001600160a01b038381166004830152600091908316906370a0823190602401602060405180830381865afa158015610e95573d6000803e3d6000fd5b505050506040513d601f19601f82011682018060405250810190610eb99190611457565b9392505050565b6000610eb98284611557565b6001600160a01b0381168114610ee157600080fd5b50565b600060208284031215610ef657600080fd5b8135610eb981610ecc565b600080600080600060808688031215610f1957600080fd5b8535610f2481610ecc565b94506020860135610f3481610ecc565b935060408601359250606086013567ffffffffffffffff80821115610f5857600080fd5b818801915088601f830112610f6c57600080fd5b813581811115610f7b57600080fd5b896020828501011115610f8d57600080fd5b9699959850939650602001949392505050565b60008060408385031215610fb357600080fd5b8235610fbe81610ecc565b91506020830135610fce81610ecc565b809150509250929050565b634e487b7160e01b600052604160045260246000fd5b60405160a0810167ffffffffffffffff8111828210171561101257611012610fd9565b60405290565b604051601f8201601f1916810167ffffffffffffffff8111828210171561104157611041610fd9565b604052919050565b6000806040838503121561105c57600080fd5b82356001600160e01b03198116811461107457600080fd5b915060208381013567ffffffffffffffff8082111561109257600080fd5b818601915086601f8301126110a657600080fd5b8135818111156110b8576110b8610fd9565b6110ca601f8201601f19168501611018565b915080825287848285010111156110e057600080fd5b80848401858401376000848284010152508093505050509250929050565b60005b83811015611119578181015183820152602001611101565b83811115611128576000848401525b50505050565b600081518084526111468160208601602086016110fe565b601f01601f19169290920160200192915050565b63ffffffff60e01b8316815260406020820152600061117c604083018461112e565b949350505050565b80516003811061119357600080fd5b919050565b600067ffffffffffffffff8211156111b2576111b2610fd9565b5060051b60200190565b600082601f8301126111cd57600080fd5b815160206111e26111dd83611198565b611018565b82815260059290921b8401810191818101908684111561120157600080fd5b8286015b8481101561122557805161121881610ecc565b8352918301918301611205565b509695505050505050565b600082601f83011261124157600080fd5b815160206112516111dd83611198565b82815260059290921b8401810191818101908684111561127057600080fd5b8286015b848110156112255780518352918301918301611274565b60006020828403121561129d57600080fd5b815167ffffffffffffffff808211156112b557600080fd5b9083019060a082860312156112c957600080fd5b6112d1610fef565b6112da83611184565b81526020830151828111156112ee57600080fd5b6112fa878286016111bc565b60208301525060408301518281111561131257600080fd5b61131e87828601611230565b60408301525060608301518281111561133657600080fd5b611342878286016111bc565b60608301525060808301518281111561135a57600080fd5b61136687828601611230565b60808301525095945050505050565b600081518084526020808501945080840160005b838110156113ae5781516001600160a01b031687529582019590820190600101611389565b509495945050505050565b600081518084526020808501945080840160005b838110156113ae578151875295820195908201906001016113cd565b6080815260006113fc6080830187611375565b828103602084015261140e81876113b9565b905082810360408401526114228186611375565b9050828103606084015261143681856113b9565b979650505050505050565b634e487b7160e01b600052603260045260246000fd5b60006020828403121561146957600080fd5b5051919050565b634e487b7160e01b600052601160045260246000fd5b60006001820161149857611498611470565b5060010190565b634e487b7160e01b600052602160045260246000fd5b6001600160a01b038316815260406020820181905260009061117c9083018461112e565b600082516114eb8184602087016110fe565b9190910192915050565b602081526000610eb9602083018461112e565b6000821982111561151b5761151b611470565b500190565b60006003841061154057634e487b7160e01b600052602160045260246000fd5b8382526040602083015261117c604083018461112e565b60008282101561156957611569611470565b50039056fea2646970667358221220a7e049bc66184ea3adfda2d82b95e5e58627054223f677e920d35683bc2609f864736f6c634300080f0033",
    "linkReferences": {}
  },
  "methodIdentifiers": {
    "DEPLOYER()": "c1b8411a",
    "Owner()": "b4a99a4e",
    "getAdapter(address)": "c157c57c",
    "getVaultProxy(address)": "0b97709b",
    "receiveCallFromComptroller(address,address,uint256,bytes)": "21bc9961",
    "setValidatedAdapter(address,address)": "808a3056",
    "setValidatedProxy(address,address)": "56f056c0"
  },
  "id": 62
}