{
  "abi": [
    {
      "inputs": [],
      "name": "AlreadyInitialized",
      "type": "error"
    },
    {
      "inputs": [],
      "name": "InvalidAccess",
      "type": "error"
    },
    {
      "inputs": [],
      "name": "InvalidSharesToBurn",
      "type": "error"
    },
    {
      "inputs": [],
      "name": "InvalidTimestamp",
      "type": "error"
    },
    {
      "inputs": [],
      "name": "InvalidWithdrawAmount",
      "type": "error"
    },
    {
      "anonymous": false,
      "inputs": [
        {
          "indexed": true,
          "internalType": "uint256",
          "name": "tokenId",
          "type": "uint256"
        },
        {
          "indexed": true,
          "internalType": "uint256",
          "name": "totalMintedShares",
          "type": "uint256"
        }
      ],
      "name": "AddedUserDeposit",
      "type": "event"
    },
    {
      "anonymous": false,
      "inputs": [
        {
          "indexed": false,
          "internalType": "uint256",
          "name": "sharesDue_",
          "type": "uint256"
        },
        {
          "indexed": false,
          "internalType": "uint256",
          "name": "secondsDue",
          "type": "uint256"
        }
      ],
      "name": "ManagementFeePaid",
      "type": "event"
    },
    {
      "anonymous": false,
      "inputs": [
        {
          "indexed": true,
          "internalType": "uint256",
          "name": "tokenId",
          "type": "uint256"
        },
        {
          "indexed": true,
          "internalType": "uint256",
          "name": "totalMintedShares",
          "type": "uint256"
        }
      ],
      "name": "NewInvestorMint",
      "type": "event"
    },
    {
      "anonymous": false,
      "inputs": [
        {
          "indexed": false,
          "internalType": "address",
          "name": "_fundManager",
          "type": "address"
        }
      ],
      "name": "TokenContractInitialized",
      "type": "event"
    },
    {
      "inputs": [
        {
          "internalType": "address",
          "name": "_depositor",
          "type": "address"
        },
        {
          "internalType": "uint256",
          "name": "_shareAmount",
          "type": "uint256"
        },
        {
          "internalType": "uint256",
          "name": "_investedAmount",
          "type": "uint256"
        },
        {
          "internalType": "uint256",
          "name": "_currentPrice",
          "type": "uint256"
        }
      ],
      "name": "addInvestment",
      "outputs": [
        {
          "internalType": "uint256",
          "name": "performanceFee",
          "type": "uint256"
        },
        {
          "internalType": "uint256",
          "name": "managementFee",
          "type": "uint256"
        },
        {
          "internalType": "uint256",
          "name": "protocolFee",
          "type": "uint256"
        }
      ],
      "stateMutability": "nonpayable",
      "type": "function"
    },
    {
      "inputs": [
        {
          "internalType": "uint256",
          "name": "_shareAmount",
          "type": "uint256"
        }
      ],
      "name": "burnShares",
      "outputs": [],
      "stateMutability": "nonpayable",
      "type": "function"
    },
    {
      "inputs": [
        {
          "internalType": "uint256",
          "name": "_tokenId",
          "type": "uint256"
        },
        {
          "internalType": "uint256",
          "name": "_sharePrice",
          "type": "uint256"
        }
      ],
      "name": "checkLiability",
      "outputs": [
        {
          "internalType": "uint256",
          "name": "_shareFee",
          "type": "uint256"
        }
      ],
      "stateMutability": "view",
      "type": "function"
    },
    {
      "inputs": [
        {
          "internalType": "uint256",
          "name": "_performanceFee",
          "type": "uint256"
        },
        {
          "internalType": "uint256",
          "name": "_managementFeeBps",
          "type": "uint256"
        },
        {
          "internalType": "address",
          "name": "_investorAddress",
          "type": "address"
        },
        {
          "internalType": "uint256",
          "name": "currentSharePrice",
          "type": "uint256"
        }
      ],
      "name": "claimPerfManagementFeeBps",
      "outputs": [
        {
          "internalType": "uint256",
          "name": "performanceFee",
          "type": "uint256"
        },
        {
          "internalType": "uint256",
          "name": "managementFee",
          "type": "uint256"
        },
        {
          "internalType": "uint256",
          "name": "protocolFee",
          "type": "uint256"
        }
      ],
      "stateMutability": "nonpayable",
      "type": "function"
    },
    {
      "inputs": [],
      "name": "comptrollerProxy",
      "outputs": [
        {
          "internalType": "address",
          "name": "",
          "type": "address"
        }
      ],
      "stateMutability": "view",
      "type": "function"
    },
    {
      "inputs": [],
      "name": "crystalizationPeriod",
      "outputs": [
        {
          "internalType": "uint256",
          "name": "",
          "type": "uint256"
        }
      ],
      "stateMutability": "view",
      "type": "function"
    },
    {
      "inputs": [],
      "name": "feeId",
      "outputs": [
        {
          "internalType": "uint256",
          "name": "_value",
          "type": "uint256"
        }
      ],
      "stateMutability": "view",
      "type": "function"
    },
    {
      "inputs": [],
      "name": "fundManager",
      "outputs": [
        {
          "internalType": "address",
          "name": "",
          "type": "address"
        }
      ],
      "stateMutability": "view",
      "type": "function"
    },
    {
      "inputs": [],
      "name": "fundPFees",
      "outputs": [
        {
          "internalType": "uint256",
          "name": "performanceFee",
          "type": "uint256"
        },
        {
          "internalType": "uint256",
          "name": "managementFee",
          "type": "uint256"
        }
      ],
      "stateMutability": "view",
      "type": "function"
    },
    {
      "inputs": [],
      "name": "getFundManagerShares",
      "outputs": [
        {
          "internalType": "uint256",
          "name": "",
          "type": "uint256"
        }
      ],
      "stateMutability": "nonpayable",
      "type": "function"
    },
    {
      "inputs": [
        {
          "internalType": "address",
          "name": "_user",
          "type": "address"
        }
      ],
      "name": "getInvestmentDetails",
      "outputs": [
        {
          "components": [
            {
              "internalType": "address",
              "name": "depositorAddress",
              "type": "address"
            },
            {
              "internalType": "uint256",
              "name": "shareAmount",
              "type": "uint256"
            },
            {
              "internalType": "uint256",
              "name": "investedAmount",
              "type": "uint256"
            },
            {
              "internalType": "uint128",
              "name": "lastInvestmentTimestamp",
              "type": "uint128"
            },
            {
              "internalType": "uint128",
              "name": "lastFeeDeductedTimestamp",
              "type": "uint128"
            },
            {
              "internalType": "uint256",
              "name": "highWaterMark",
              "type": "uint256"
            }
          ],
          "internalType": "struct UserTokenLib.UserInvestment",
          "name": "",
          "type": "tuple"
        }
      ],
      "stateMutability": "view",
      "type": "function"
    },
    {
      "inputs": [
        {
          "internalType": "uint256",
          "name": "_tokenId",
          "type": "uint256"
        }
      ],
      "name": "getInvestmentDetails",
      "outputs": [
        {
          "components": [
            {
              "internalType": "address",
              "name": "depositorAddress",
              "type": "address"
            },
            {
              "internalType": "uint256",
              "name": "shareAmount",
              "type": "uint256"
            },
            {
              "internalType": "uint256",
              "name": "investedAmount",
              "type": "uint256"
            },
            {
              "internalType": "uint128",
              "name": "lastInvestmentTimestamp",
              "type": "uint128"
            },
            {
              "internalType": "uint128",
              "name": "lastFeeDeductedTimestamp",
              "type": "uint128"
            },
            {
              "internalType": "uint256",
              "name": "highWaterMark",
              "type": "uint256"
            }
          ],
          "internalType": "struct UserTokenLib.UserInvestment",
          "name": "",
          "type": "tuple"
        }
      ],
      "stateMutability": "view",
      "type": "function"
    },
    {
      "inputs": [
        {
          "internalType": "address",
          "name": "investorAddress",
          "type": "address"
        }
      ],
      "name": "getInvestorInvestments",
      "outputs": [
        {
          "internalType": "uint256",
          "name": "",
          "type": "uint256"
        },
        {
          "internalType": "uint256",
          "name": "",
          "type": "uint256"
        },
        {
          "internalType": "uint256",
          "name": "",
          "type": "uint256"
        }
      ],
      "stateMutability": "nonpayable",
      "type": "function"
    },
    {
      "inputs": [
        {
          "internalType": "address",
          "name": "_user",
          "type": "address"
        }
      ],
      "name": "getTokenId",
      "outputs": [
        {
          "internalType": "uint256",
          "name": "",
          "type": "uint256"
        }
      ],
      "stateMutability": "view",
      "type": "function"
    },
    {
      "inputs": [],
      "name": "getTotalMintedShares",
      "outputs": [
        {
          "internalType": "uint256",
          "name": "",
          "type": "uint256"
        }
      ],
      "stateMutability": "view",
      "type": "function"
    },
    {
      "inputs": [],
      "name": "governanceContract",
      "outputs": [
        {
          "internalType": "address",
          "name": "",
          "type": "address"
        }
      ],
      "stateMutability": "view",
      "type": "function"
    },
    {
      "inputs": [
        {
          "internalType": "address",
          "name": "_fundManager",
          "type": "address"
        },
        {
          "internalType": "address",
          "name": "_governanceContract",
          "type": "address"
        },
        {
          "internalType": "address",
          "name": "_comptrollerProxy",
          "type": "address"
        }
      ],
      "name": "initialize",
      "outputs": [],
      "stateMutability": "nonpayable",
      "type": "function"
    },
    {
      "inputs": [
        {
          "internalType": "uint256",
          "name": "",
          "type": "uint256"
        }
      ],
      "name": "investments",
      "outputs": [
        {
          "internalType": "address",
          "name": "depositorAddress",
          "type": "address"
        },
        {
          "internalType": "uint256",
          "name": "shareAmount",
          "type": "uint256"
        },
        {
          "internalType": "uint256",
          "name": "investedAmount",
          "type": "uint256"
        },
        {
          "internalType": "uint128",
          "name": "lastInvestmentTimestamp",
          "type": "uint128"
        },
        {
          "internalType": "uint128",
          "name": "lastFeeDeductedTimestamp",
          "type": "uint128"
        },
        {
          "internalType": "uint256",
          "name": "highWaterMark",
          "type": "uint256"
        }
      ],
      "stateMutability": "view",
      "type": "function"
    },
    {
      "inputs": [
        {
          "internalType": "address",
          "name": "_user",
          "type": "address"
        }
      ],
      "name": "isInvestor",
      "outputs": [
        {
          "internalType": "bool",
          "name": "",
          "type": "bool"
        }
      ],
      "stateMutability": "view",
      "type": "function"
    },
    {
      "inputs": [],
      "name": "managementFeeTimestamp",
      "outputs": [
        {
          "internalType": "uint256",
          "name": "",
          "type": "uint256"
        }
      ],
      "stateMutability": "view",
      "type": "function"
    },
    {
      "inputs": [
        {
          "internalType": "uint256",
          "name": "_shareAmount",
          "type": "uint256"
        }
      ],
      "name": "mintShares",
      "outputs": [],
      "stateMutability": "nonpayable",
      "type": "function"
    },
    {
      "inputs": [
        {
          "internalType": "address",
          "name": "_depositor",
          "type": "address"
        },
        {
          "internalType": "uint256",
          "name": "_entryPrice",
          "type": "uint256"
        },
        {
          "internalType": "uint256",
          "name": "_shareAmount",
          "type": "uint256"
        },
        {
          "internalType": "uint256",
          "name": "_investedAmount",
          "type": "uint256"
        }
      ],
      "name": "mintToken",
      "outputs": [
        {
          "internalType": "uint256",
          "name": "",
          "type": "uint256"
        }
      ],
      "stateMutability": "nonpayable",
      "type": "function"
    },
    {
      "inputs": [
        {
          "internalType": "uint256",
          "name": "",
          "type": "uint256"
        }
      ],
      "name": "profitFees",
      "outputs": [
        {
          "internalType": "uint256",
          "name": "startProfit",
          "type": "uint256"
        },
        {
          "internalType": "uint256",
          "name": "endProfit",
          "type": "uint256"
        },
        {
          "internalType": "uint256",
          "name": "profitSlabFee",
          "type": "uint256"
        }
      ],
      "stateMutability": "view",
      "type": "function"
    },
    {
      "inputs": [],
      "name": "protocolShareFee",
      "outputs": [
        {
          "internalType": "uint256",
          "name": "",
          "type": "uint256"
        }
      ],
      "stateMutability": "view",
      "type": "function"
    },
    {
      "inputs": [
        {
          "internalType": "uint256",
          "name": "_crystalizationPeriod",
          "type": "uint256"
        }
      ],
      "name": "setCrystalizationPeriod",
      "outputs": [],
      "stateMutability": "nonpayable",
      "type": "function"
    },
    {
      "inputs": [
        {
          "internalType": "uint256",
          "name": "_startProfit",
          "type": "uint256"
        },
        {
          "internalType": "uint256",
          "name": "_endProfit",
          "type": "uint256"
        },
        {
          "internalType": "uint256",
          "name": "_fee",
          "type": "uint256"
        }
      ],
      "name": "setProfitFeeSlab",
      "outputs": [],
      "stateMutability": "nonpayable",
      "type": "function"
    },
    {
      "inputs": [],
      "name": "tokenIds",
      "outputs": [
        {
          "internalType": "uint256",
          "name": "_value",
          "type": "uint256"
        }
      ],
      "stateMutability": "view",
      "type": "function"
    },
    {
      "inputs": [],
      "name": "totalMintedShares",
      "outputs": [
        {
          "internalType": "uint256",
          "name": "",
          "type": "uint256"
        }
      ],
      "stateMutability": "view",
      "type": "function"
    },
    {
      "inputs": [
        {
          "internalType": "address",
          "name": "_user",
          "type": "address"
        },
        {
          "internalType": "uint256",
          "name": "investedAmount",
          "type": "uint256"
        }
      ],
      "name": "updateInvestmentDetails",
      "outputs": [
        {
          "internalType": "uint256",
          "name": "",
          "type": "uint256"
        }
      ],
      "stateMutability": "nonpayable",
      "type": "function"
    },
    {
      "inputs": [
        {
          "internalType": "address",
          "name": "_investor",
          "type": "address"
        },
        {
          "internalType": "uint256",
          "name": "_sharePrice",
          "type": "uint256"
        },
        {
          "internalType": "uint256",
          "name": "_sharesQuantity",
          "type": "uint256"
        }
      ],
      "name": "withdrawAndExit",
      "outputs": [
        {
          "internalType": "uint256",
          "name": "",
          "type": "uint256"
        },
        {
          "internalType": "uint256",
          "name": "",
          "type": "uint256"
        },
        {
          "internalType": "uint256",
          "name": "",
          "type": "uint256"
        },
        {
          "internalType": "uint256",
          "name": "",
          "type": "uint256"
        }
      ],
      "stateMutability": "nonpayable",
      "type": "function"
    }
  ],
  "bytecode": {
    "object": "0x60c06040526127106080526301e187e060a05234801561001e57600080fd5b5060805160a0516120266100446000396000611b8d01526000611b6901526120266000f3fe608060405234801561001057600080fd5b50600436106101da5760003560e01c806391a6252311610104578063b1aa90a1116100a2578063dc35beb311610071578063dc35beb314610466578063f153768614610479578063f9058b52146104a2578063fd345c8a146104b557600080fd5b8063b1aa90a11461040a578063c0c53b8b1461041d578063ce7f35b414610430578063cee2a9cf1461044357600080fd5b8063a8a64f7d116100de578063a8a64f7d146103c8578063acda2531146103d1578063af8d0a7a146103e4578063b172b222146103f757600080fd5b806391a6252314610338578063945084be146103ac57806394b10342146103bf57600080fd5b80634c431f001161017c578063714cff561161014b578063714cff56146102e0578063774c7388146102ea57806383c52af5146102f2578063853c637d1461032557600080fd5b80634c431f001461027c5780634cbfb08a1461028f5780634fb6417e146102ba5780636209ec2d146102cd57600080fd5b806325ed3d44116101b857806325ed3d441461023e57806333761d9e146102475780633b3c564e1461026a5780633f8539021461027257600080fd5b8063065b43bf146101df57806306ed0717146101f45780630b42497f14610210575b600080fd5b6101f26101ed366004611cf5565b610554565b005b6101fd60045481565b6040519081526020015b60405180910390f35b61022361021e366004611d21565b610621565b60408051938452602084019290925290820152606001610207565b6101fd600a5481565b600854600954610255919082565b60408051928352602083019190915201610207565b6101fd610654565b6001546101fd9081565b61022361028a366004611d56565b610782565b6003546102a2906001600160a01b031681565b6040516001600160a01b039091168152602001610207565b6102236102c8366004611d71565b6107dc565b6002546102a2906001600160a01b031681565b6000546101fd9081565b6004546101fd565b610305610300366004611dae565b610a97565b604080519485526020850193909352918301526060820152608001610207565b6101f2610333366004611d21565b610da0565b61034b610346366004611d56565b610e08565b604051610207919081516001600160a01b0316815260208083015190820152604080830151908201526060808301516001600160801b03908116918301919091526080808401519091169082015260a0918201519181019190915260c00190565b6101fd6103ba366004611de1565b610e8e565b6101fd60075481565b6101fd600c5481565b6101f26103df366004611d21565b610ec2565b6101fd6103f2366004611e0b565b610ef2565b600d546102a2906001600160a01b031681565b6101f2610418366004611d21565b610ff2565b6101f261042b366004611e2d565b61102f565b61034b61043e366004611d21565b6110f6565b610456610451366004611d56565b61116f565b6040519015158152602001610207565b610223610474366004611e70565b61119e565b6101fd610487366004611d56565b6001600160a01b031660009081526005602052604090205490565b6101fd6104b0366004611e70565b611455565b6105116104c3366004611d21565b600660205260009081526040902080546001820154600283015460038401546004909401546001600160a01b0390931693919290916001600160801b0380821692600160801b909204169086565b604080516001600160a01b0390971687526020870195909552938501929092526001600160801b03908116606085015216608083015260a082015260c001610207565b6003546001600160a01b0316331461057f57604051633006171960e21b815260040160405180910390fd5b61058d600180546001019055565b82600b61059960015490565b815481106105a9576105a9611ea9565b600091825260209091206003909102015581600b6105c660015490565b815481106105d6576105d6611ea9565b90600052602060002090600302016001018190555080600b6105f760015490565b8154811061060757610607611ea9565b906000526020600020906003020160020181905550505050565b600b818154811061063157600080fd5b600091825260209091206003909102018054600182015460029092015490925083565b6003546000906001600160a01b0316331461068257604051633006171960e21b815260040160405180910390fd5b506001600052600660209081526040805160c0810182527f3e5fec24aa4dc4e5aee2e025e51e1392c72a2500577559fae9665c6d52bd6a31546001600160a01b031681527f3e5fec24aa4dc4e5aee2e025e51e1392c72a2500577559fae9665c6d52bd6a32549281018390527f3e5fec24aa4dc4e5aee2e025e51e1392c72a2500577559fae9665c6d52bd6a3354918101919091527f3e5fec24aa4dc4e5aee2e025e51e1392c72a2500577559fae9665c6d52bd6a34546001600160801b038082166060840152600160801b9091041660808201527f3e5fec24aa4dc4e5aee2e025e51e1392c72a2500577559fae9665c6d52bd6a355460a09091015290565b600354600090819081906001600160a01b031633146107b457604051633006171960e21b815260040160405180910390fd5b60006107bf85610e08565b60a081015160208201516040909201519097919650945092505050565b600354600090819081906001600160a01b0316331461080e57604051633006171960e21b815260040160405180910390fd5b600887905560098690556001600160a01b0385166000908152600560205260408120549061083c8287610ef2565b600083815260066020908152604091829020825160c08101845281546001600160a01b031681526001820154928101839052600282015493810193909352600301546001600160801b03908116606084015260a083018a905242166080830152919250906108aa908361160b565b60208201526108c76305f5e1006108c18985611ed5565b9061161e565b81604001516108d69190611ef4565b6040808301918252600085815260066020908152919020835181546001600160a01b039091166001600160a01b031990911617815590830151600182015590516002820155606082015160808301516001600160801b03908116600160801b02911617600382015560a08201516004909101559094508490811561097157600061096183600061162a565b905061096d838261160b565b9250505b61097a82611969565b60006109858a61199d565b6020830151909150610997908261160b565b60208301526109ae6305f5e1006108c18a84611ed5565b82604001516109bd9190611ef4565b60408301529450846109ce81611969565b60006109dc6004548c61162a565b60208401519091506109ee908261160b565b6020840152610a056305f5e1006108c18b84611ed5565b8360400151610a149190611ef4565b60408085019182526000968752600660209081529620845181546001600160a01b039091166001600160a01b0319909116178155958401516001870155516002860155606083015160808401516001600160801b03908116600160801b02911617600386015560a090920151600490940193909355925050509450945094915050565b6003546000908190819081906001600160a01b03163314610acb57604051633006171960e21b815260040160405180910390fd5b6001600160a01b038088166000908152600560209081526040808320548084526006835292819020815160c08101835281549095168552600181015492850183905260028101549185019190915260038101546001600160801b038082166060870152600160801b9091041660808501526004015460a0840152909190871115610b6857604051630db73cdf60e41b815260040160405180910390fd5b6000610b74838a610ef2565b9050610b808189611ef4565b8260200151610b8f9190611ef4565b6020830152610bb16305f5e1008a610ba7848c611ef4565b6108c19190611ed5565b8260400151610bc09190611ef4565b604083015260a082018990528015610bf5576000610bdf82600061162a565b9050610bf3610bee8284611ef4565b611969565b505b6000610c0560086001015461199d565b90508083602001818151610c199190611ef4565b905250610c2e6305f5e1006108c18c84611ed5565b8360400151610c3d9190611ef4565b6040840152610c4b81611969565b6000610c5e60045460086001015461162a565b90508084602001818151610c729190611ef4565b905250610c876305f5e1006108c18d84611ed5565b8460400151610c969190611ef4565b60408501526020840151600003610cdd57600085815260066020526040812080546001600160a01b0319168155600181018290556002810182905560038101829055600401555b600085815260066020908152604091829020865181546001600160a01b039091166001600160a01b0319909116178155908601516001820155908501516002820155606085015160808601516001600160801b03908116600160801b02911617600382015560a0850151600490910155610d6f61033382610d5e8587611f0b565b610d689190611f0b565b8c9061160b565b610d8e81610d7d8486611f0b565b610d879190611f0b565b8b9061160b565b9c929b50909950975095505050505050565b6003546001600160a01b03163314610dcb57604051633006171960e21b815260040160405180910390fd5b600454811115610dee5760405163745e408160e11b815260040160405180910390fd5b8060046000828254610e009190611ef4565b909155505050565b610e10611ca4565b506001600160a01b0390811660009081526005602090815260408083205483526006825291829020825160c0810184528154909416845260018101549184019190915260028101549183019190915260038101546001600160801b038082166060850152600160801b9091041660808301526004015460a082015290565b6003546000906001600160a01b03163314610ebc57604051633006171960e21b815260040160405180910390fd5b92915050565b6003546001600160a01b03163314610eed57604051633006171960e21b815260040160405180910390fd5b600755565b6000828152600660209081526040808320815160c08101835281546001600160a01b0316815260018201549381019390935260028101549183019190915260038101546001600160801b0380821660608501819052600160801b9092048116608085015260049092015460a0840152429091161015610f845760405163b7d0949760e01b815260040160405180910390fd5b6007546080820151610f969042611f23565b6001600160801b031611610fae576000915050610ebc565b60408101516020820151600091610fc6919086611a19565b90508015610fe757600854610fde9082908690611a52565b92505050610ebc565b506000949350505050565b6003546001600160a01b0316331461101d57604051633006171960e21b815260040160405180910390fd5b8060046000828254610e009190611f0b565b6002546001600160a01b0316156110585760405162dc149f60e41b815260040160405180910390fd5b600380546001600160a01b038084166001600160a01b031992831617909255600280549286169290911691909117905561109183611a7a565b600d80546001600160a01b0319166001600160a01b0384161790556110b582611a7a565b6040516001600160a01b03841681527f9add798b32e385be715abefad24ac70fc4d3d4cfc9687c9e17636985cd6feb229060200160405180910390a1505050565b6110fe611ca4565b50600090815260066020908152604091829020825160c08101845281546001600160a01b0316815260018201549281019290925260028101549282019290925260038201546001600160801b038082166060840152600160801b90910416608082015260049091015460a082015290565b6001600160a01b038116600090815260056020526040812054810361119657506000919050565b506001919050565b600354600090819081906001600160a01b031633146111d057604051633006171960e21b815260040160405180910390fd5b6001600160a01b038716600090815260056020526040812054906111f48287610ef2565b600083815260066020908152604091829020825160c08101845281546001600160a01b031681526001820154928101929092526002810154928201839052600301546001600160801b038082166060840152600160801b90910416608082015260a08101899052919250611269908990611f0b565b60408201526001600160801b03421660808201526020810151899061128f908490611ef4565b6112999190611f0b565b60208201526112b06305f5e1006108c18985611ed5565b81604001516112bf9190611ef4565b6040820152909450849081156112ec5760006112dc83600061162a565b90506112e88184611ef4565b9250505b6112f582611969565b600061130560086001015461199d565b6020830151909150611317908261160b565b602083015261132e6305f5e1006108c18a84611ed5565b826040015161133d9190611ef4565b604083015294508461134e81611969565b600061136160045460086001015461162a565b6020840151909150611373908261160b565b602084015294508461138d6305f5e1006108c18b84611ed5565b836040015161139c9190611ef4565b6040808501918252600087815260066020908152919020855181546001600160a01b039091166001600160a01b031990911617815590850151600182015590516002820155606084015160808501516001600160801b03908116600160801b02911617600382015560a08401516004909101556114188b610ff2565b60045460405186907f7dc5cba51306b878bf1c1701e6acb8d20e71cde5a967a4e548ea71047d9ca8ea90600090a350505050509450945094915050565b6003546000906001600160a01b0316331461148357604051633006171960e21b815260040160405180910390fd5b611491600080546001019055565b60008054905060006040518060c00160405280886001600160a01b03168152602001868152602001858152602001426001600160801b0316815260200160006001600160801b03168152602001878152509050806006600084815260200190815260200160002060008201518160000160006101000a8154816001600160a01b0302191690836001600160a01b03160217905550602082015181600101556040820151816002015560608201518160030160006101000a8154816001600160801b0302191690836001600160801b0316021790555060808201518160030160106101000a8154816001600160801b0302191690836001600160801b0316021790555060a082015181600401559050508160056000896001600160a01b03166001600160a01b03168152602001908152602001600020819055506115d385610ff2565b60045460405183907ffd602d2945e6ae6966a9148fafdf3abfbab20e0140b1055e7962eea9d7644cbc90600090a35095945050505050565b60006116178284611ef4565b9392505050565b60006116178284611f61565b60026000908152600660209081526040805160c0810182527f8819ef417987f8ae7a81f42cdfb18815282fe989326fbff903d13cf0e03ace29546001600160a01b031681527f8819ef417987f8ae7a81f42cdfb18815282fe989326fbff903d13cf0e03ace2a54928101929092527f8819ef417987f8ae7a81f42cdfb18815282fe989326fbff903d13cf0e03ace2b54908201527f8819ef417987f8ae7a81f42cdfb18815282fe989326fbff903d13cf0e03ace2c546001600160801b038082166060840152600160801b90910416608082018190527f8819ef417987f8ae7a81f42cdfb18815282fe989326fbff903d13cf0e03ace2d5460a0830152829190421161173b57600092505050610ebc565b83156117c657600d546080820151604051636cc7788f60e11b81526001600160a01b039092169163d98ef11e9161177c918991906001908a90600401611fa5565b6020604051808303816000875af115801561179b573d6000803e3d6000fd5b505050506040513d601f19601f820116820180604052508101906117bf9190611fd7565b9150611847565b600d546080820151604051636cc7788f60e11b81526001600160a01b039092169163d98ef11e91611801918991906000908190600401611fa5565b6020604051808303816000875af1158015611820573d6000803e3d6000fd5b505050506040513d601f19601f820116820180604052508101906118449190611fd7565b91505b60208101516118569083611b55565b60208083019182526001600160801b03428116608085019081526002600052600690925283517f8819ef417987f8ae7a81f42cdfb18815282fe989326fbff903d13cf0e03ace2980546001600160a01b039092166001600160a01b031990921691909117905591517f8819ef417987f8ae7a81f42cdfb18815282fe989326fbff903d13cf0e03ace2a5560408301517f8819ef417987f8ae7a81f42cdfb18815282fe989326fbff903d13cf0e03ace2b55606083015190518216600160801b029116177f8819ef417987f8ae7a81f42cdfb18815282fe989326fbff903d13cf0e03ace2c5560a001517f8819ef417987f8ae7a81f42cdfb18815282fe989326fbff903d13cf0e03ace2d55905092915050565b600160005260066020527f3e5fec24aa4dc4e5aee2e025e51e1392c72a2500577559fae9665c6d52bd6a3280549091019055565b600c546000904281106119b35750600092915050565b60006119bf428361160b565b905060006119cd8286611b61565b90506119d842600c55565b60408051828152602081018490527f1b32cb4b714d78412f66aad97cbfd81b664b612ee36502afdab95be1416e4a06910160405180910390a1949350505050565b600080611a2584611bd3565b611a366305f5e10087860204611bd3565b03905060008112610fe757611a4a81611c46565b915050611617565b600061271082850204836305f5e100820281611a7057611a70611f4b565b0495945050505050565b611a88600080546001019055565b6040518060c00160405280826001600160a01b031681526020016000815260200160008152602001426001600160801b0316815260200160006001600160801b03168152602001600081525060066000611ae160005490565b81526020808201929092526040908101600020835181546001600160a01b039091166001600160a01b03199091161781559183015160018301558201516002820155606082015160808301516001600160801b03908116600160801b02911617600382015560a09091015160049091015550565b60006116178284611f0b565b600080611bcb7f00000000000000000000000000000000000000000000000000000000000000006108c17f00000000000000000000000000000000000000000000000000000000000000006108c188611bc589600454611c9890919063ffffffff16565b90611c98565b949350505050565b60006001600160ff1b03821115611c425760405162461bcd60e51b815260206004820152602860248201527f53616665436173743a2076616c756520646f65736e27742066697420696e2061604482015267371034b73a191a9b60c11b60648201526084015b60405180910390fd5b5090565b600080821215611c425760405162461bcd60e51b815260206004820181905260248201527f53616665436173743a2076616c7565206d75737420626520706f7369746976656044820152606401611c39565b60006116178284611ed5565b6040518060c0016040528060006001600160a01b03168152602001600081526020016000815260200160006001600160801b0316815260200160006001600160801b03168152602001600081525090565b600080600060608486031215611d0a57600080fd5b505081359360208301359350604090920135919050565b600060208284031215611d3357600080fd5b5035919050565b80356001600160a01b0381168114611d5157600080fd5b919050565b600060208284031215611d6857600080fd5b61161782611d3a565b60008060008060808587031215611d8757600080fd5b8435935060208501359250611d9e60408601611d3a565b9396929550929360600135925050565b600080600060608486031215611dc357600080fd5b611dcc84611d3a565b95602085013595506040909401359392505050565b60008060408385031215611df457600080fd5b611dfd83611d3a565b946020939093013593505050565b60008060408385031215611e1e57600080fd5b50508035926020909101359150565b600080600060608486031215611e4257600080fd5b611e4b84611d3a565b9250611e5960208501611d3a565b9150611e6760408501611d3a565b90509250925092565b60008060008060808587031215611e8657600080fd5b611e8f85611d3a565b966020860135965060408601359560600135945092505050565b634e487b7160e01b600052603260045260246000fd5b634e487b7160e01b600052601160045260246000fd5b6000816000190483118215151615611eef57611eef611ebf565b500290565b600082821015611f0657611f06611ebf565b500390565b60008219821115611f1e57611f1e611ebf565b500190565b60006001600160801b0383811690831681811015611f4357611f43611ebf565b039392505050565b634e487b7160e01b600052601260045260246000fd5b600082611f7e57634e487b7160e01b600052601260045260246000fd5b500490565b60028110611fa157634e487b7160e01b600052602160045260246000fd5b9052565b8481526001600160801b038416602082015260808101611fc86040830185611f83565b82606083015295945050505050565b600060208284031215611fe957600080fd5b505191905056fea2646970667358221220b156b61f5e8203cb4d89f30347caed6a4531c6d761efa6e9831539d51e0972de64736f6c634300080f0033",
    "linkReferences": {}
  },
  "methodIdentifiers": {
    "addInvestment(address,uint256,uint256,uint256)": "dc35beb3",
    "burnShares(uint256)": "853c637d",
    "checkLiability(uint256,uint256)": "af8d0a7a",
    "claimPerfManagementFeeBps(uint256,uint256,address,uint256)": "4fb6417e",
    "comptrollerProxy()": "4cbfb08a",
    "crystalizationPeriod()": "94b10342",
    "feeId()": "3f853902",
    "fundManager()": "6209ec2d",
    "fundPFees()": "33761d9e",
    "getFundManagerShares()": "3b3c564e",
    "getInvestmentDetails(address)": "91a62523",
    "getInvestmentDetails(uint256)": "ce7f35b4",
    "getInvestorInvestments(address)": "4c431f00",
    "getTokenId(address)": "f1537686",
    "getTotalMintedShares()": "774c7388",
    "governanceContract()": "b172b222",
    "initialize(address,address,address)": "c0c53b8b",
    "investments(uint256)": "fd345c8a",
    "isInvestor(address)": "cee2a9cf",
    "managementFeeTimestamp()": "a8a64f7d",
    "mintShares(uint256)": "b1aa90a1",
    "mintToken(address,uint256,uint256,uint256)": "f9058b52",
    "profitFees(uint256)": "0b42497f",
    "protocolShareFee()": "25ed3d44",
    "setCrystalizationPeriod(uint256)": "acda2531",
    "setProfitFeeSlab(uint256,uint256,uint256)": "065b43bf",
    "tokenIds()": "714cff56",
    "totalMintedShares()": "06ed0717",
    "updateInvestmentDetails(address,uint256)": "945084be",
    "withdrawAndExit(address,uint256,uint256)": "83c52af5"
  },
  "id": 104
}