{
  "abi": [
    {
      "inputs": [
        {
          "internalType": "address",
          "name": "_wmaticToken",
          "type": "address"
        }
      ],
      "stateMutability": "nonpayable",
      "type": "constructor"
    },
    {
      "inputs": [],
      "name": "BalanceError",
      "type": "error"
    },
    {
      "anonymous": false,
      "inputs": [
        {
          "indexed": true,
          "internalType": "address",
          "name": "asset",
          "type": "address"
        },
        {
          "indexed": true,
          "internalType": "address",
          "name": "investor",
          "type": "address"
        },
        {
          "indexed": false,
          "internalType": "uint256",
          "name": "amount",
          "type": "uint256"
        }
      ],
      "name": "AssetDeposited",
      "type": "event"
    },
    {
      "anonymous": false,
      "inputs": [
        {
          "indexed": true,
          "internalType": "address",
          "name": "asset",
          "type": "address"
        },
        {
          "indexed": true,
          "internalType": "address",
          "name": "target",
          "type": "address"
        },
        {
          "indexed": false,
          "internalType": "uint256",
          "name": "amount",
          "type": "uint256"
        }
      ],
      "name": "AssetTransferred",
      "type": "event"
    },
    {
      "anonymous": false,
      "inputs": [
        {
          "indexed": true,
          "internalType": "address",
          "name": "asset",
          "type": "address"
        },
        {
          "indexed": true,
          "internalType": "address",
          "name": "target",
          "type": "address"
        },
        {
          "indexed": false,
          "internalType": "uint256",
          "name": "amount",
          "type": "uint256"
        }
      ],
      "name": "AssetWithdrawn",
      "type": "event"
    },
    {
      "anonymous": false,
      "inputs": [
        {
          "indexed": false,
          "internalType": "address",
          "name": "prevComptroller",
          "type": "address"
        },
        {
          "indexed": false,
          "internalType": "address",
          "name": "nextAccessor",
          "type": "address"
        }
      ],
      "name": "ComptrollerSet",
      "type": "event"
    },
    {
      "anonymous": false,
      "inputs": [
        {
          "indexed": false,
          "internalType": "address",
          "name": "depositAsset",
          "type": "address"
        }
      ],
      "name": "DepositAssetAdded",
      "type": "event"
    },
    {
      "anonymous": false,
      "inputs": [
        {
          "indexed": false,
          "internalType": "address[]",
          "name": "depositAsset",
          "type": "address[]"
        },
        {
          "indexed": false,
          "internalType": "address[]",
          "name": "investableAsset",
          "type": "address[]"
        }
      ],
      "name": "DepositAssetAddedBulk",
      "type": "event"
    },
    {
      "anonymous": false,
      "inputs": [
        {
          "indexed": false,
          "internalType": "address",
          "name": "depositAsset",
          "type": "address"
        }
      ],
      "name": "DepositAssetRemoved",
      "type": "event"
    },
    {
      "anonymous": false,
      "inputs": [
        {
          "indexed": false,
          "internalType": "address[]",
          "name": "depositAsset",
          "type": "address[]"
        }
      ],
      "name": "DepositAssetRemovedBulk",
      "type": "event"
    },
    {
      "anonymous": false,
      "inputs": [
        {
          "indexed": true,
          "internalType": "address",
          "name": "sender",
          "type": "address"
        },
        {
          "indexed": false,
          "internalType": "uint256",
          "name": "amount",
          "type": "uint256"
        }
      ],
      "name": "MaticReceived",
      "type": "event"
    },
    {
      "anonymous": false,
      "inputs": [
        {
          "indexed": false,
          "internalType": "address",
          "name": "prevOwner",
          "type": "address"
        },
        {
          "indexed": false,
          "internalType": "address",
          "name": "newOwner",
          "type": "address"
        }
      ],
      "name": "OwnerSet",
      "type": "event"
    },
    {
      "anonymous": false,
      "inputs": [
        {
          "indexed": true,
          "internalType": "address",
          "name": "investor",
          "type": "address"
        },
        {
          "indexed": false,
          "internalType": "uint256",
          "name": "amount",
          "type": "uint256"
        }
      ],
      "name": "SharesBurned",
      "type": "event"
    },
    {
      "anonymous": false,
      "inputs": [
        {
          "indexed": true,
          "internalType": "address",
          "name": "investor",
          "type": "address"
        },
        {
          "indexed": false,
          "internalType": "uint256",
          "name": "amount",
          "type": "uint256"
        }
      ],
      "name": "SharesMinted",
      "type": "event"
    },
    {
      "anonymous": false,
      "inputs": [
        {
          "indexed": false,
          "internalType": "address",
          "name": "prevVaultLibrary",
          "type": "address"
        },
        {
          "indexed": false,
          "internalType": "address",
          "name": "nextVaultLibrary",
          "type": "address"
        }
      ],
      "name": "VaultLibrarySet",
      "type": "event"
    },
    {
      "inputs": [
        {
          "internalType": "address",
          "name": "_depositAsset",
          "type": "address"
        }
      ],
      "name": "addDepositAsset",
      "outputs": [],
      "stateMutability": "nonpayable",
      "type": "function"
    },
    {
      "inputs": [
        {
          "internalType": "address[]",
          "name": "_depositAssets",
          "type": "address[]"
        }
      ],
      "name": "addDepositAssetBulk",
      "outputs": [],
      "stateMutability": "nonpayable",
      "type": "function"
    },
    {
      "inputs": [],
      "name": "checkPrivateFund",
      "outputs": [
        {
          "internalType": "bool",
          "name": "",
          "type": "bool"
        }
      ],
      "stateMutability": "view",
      "type": "function"
    },
    {
      "inputs": [
        {
          "internalType": "address",
          "name": "investor",
          "type": "address"
        }
      ],
      "name": "checkWhitelistedAddress",
      "outputs": [
        {
          "internalType": "bool",
          "name": "",
          "type": "bool"
        }
      ],
      "stateMutability": "view",
      "type": "function"
    },
    {
      "inputs": [
        {
          "internalType": "address",
          "name": "",
          "type": "address"
        }
      ],
      "name": "depositableAssets",
      "outputs": [
        {
          "internalType": "bool",
          "name": "",
          "type": "bool"
        }
      ],
      "stateMutability": "view",
      "type": "function"
    },
    {
      "inputs": [],
      "name": "getDepositLimitForFund",
      "outputs": [
        {
          "internalType": "uint256",
          "name": "",
          "type": "uint256"
        }
      ],
      "stateMutability": "view",
      "type": "function"
    },
    {
      "inputs": [],
      "name": "getInvestableAssets",
      "outputs": [
        {
          "internalType": "address[]",
          "name": "",
          "type": "address[]"
        }
      ],
      "stateMutability": "view",
      "type": "function"
    },
    {
      "inputs": [],
      "name": "getOwner",
      "outputs": [
        {
          "internalType": "address",
          "name": "",
          "type": "address"
        }
      ],
      "stateMutability": "view",
      "type": "function"
    },
    {
      "inputs": [],
      "name": "getUUID",
      "outputs": [
        {
          "internalType": "bytes32",
          "name": "uuid",
          "type": "bytes32"
        }
      ],
      "stateMutability": "pure",
      "type": "function"
    },
    {
      "inputs": [],
      "name": "getVaultLibrary",
      "outputs": [
        {
          "internalType": "address",
          "name": "vaultLib",
          "type": "address"
        }
      ],
      "stateMutability": "view",
      "type": "function"
    },
    {
      "inputs": [],
      "name": "getWMATICToken",
      "outputs": [
        {
          "internalType": "address",
          "name": "",
          "type": "address"
        }
      ],
      "stateMutability": "view",
      "type": "function"
    },
    {
      "inputs": [
        {
          "internalType": "address",
          "name": "_owner",
          "type": "address"
        },
        {
          "internalType": "address",
          "name": "_comptroller",
          "type": "address"
        },
        {
          "internalType": "bool",
          "name": "_isPrivateFund",
          "type": "bool"
        },
        {
          "internalType": "uint256",
          "name": "_fundDepositLimit",
          "type": "uint256"
        }
      ],
      "name": "init",
      "outputs": [],
      "stateMutability": "nonpayable",
      "type": "function"
    },
    {
      "inputs": [
        {
          "internalType": "address",
          "name": "_depositAsset",
          "type": "address"
        }
      ],
      "name": "isDepositAssetAllowed",
      "outputs": [
        {
          "internalType": "bool",
          "name": "",
          "type": "bool"
        }
      ],
      "stateMutability": "view",
      "type": "function"
    },
    {
      "inputs": [
        {
          "internalType": "enum IVault.VaultActions",
          "name": "_action",
          "type": "uint8"
        },
        {
          "internalType": "bytes",
          "name": "_actionData",
          "type": "bytes"
        }
      ],
      "name": "receiveAction",
      "outputs": [],
      "stateMutability": "nonpayable",
      "type": "function"
    },
    {
      "inputs": [
        {
          "internalType": "address",
          "name": "_depositAsset",
          "type": "address"
        }
      ],
      "name": "removeDepositAsset",
      "outputs": [],
      "stateMutability": "nonpayable",
      "type": "function"
    },
    {
      "inputs": [
        {
          "internalType": "address[]",
          "name": "_depositAssets",
          "type": "address[]"
        }
      ],
      "name": "removeDepositAssetBulk",
      "outputs": [],
      "stateMutability": "nonpayable",
      "type": "function"
    },
    {
      "inputs": [
        {
          "internalType": "address[]",
          "name": "investorAddress",
          "type": "address[]"
        }
      ],
      "name": "setAllowedInvestors",
      "outputs": [],
      "stateMutability": "nonpayable",
      "type": "function"
    },
    {
      "inputs": [
        {
          "internalType": "address",
          "name": "_comptroller",
          "type": "address"
        }
      ],
      "name": "setComptroller",
      "outputs": [],
      "stateMutability": "nonpayable",
      "type": "function"
    },
    {
      "inputs": [
        {
          "internalType": "address",
          "name": "",
          "type": "address"
        }
      ],
      "name": "whitelistedAddress",
      "outputs": [
        {
          "internalType": "bool",
          "name": "",
          "type": "bool"
        }
      ],
      "stateMutability": "view",
      "type": "function"
    },
    {
      "stateMutability": "payable",
      "type": "receive"
    }
  ],
  "bytecode": {
    "object": "0x60a060405234801561001057600080fd5b50604051611b5a380380611b5a83398101604081905261002f91610040565b6001600160a01b0316608052610070565b60006020828403121561005257600080fd5b81516001600160a01b038116811461006957600080fd5b9392505050565b608051611ac86100926000396000818161012101526101df0152611ac86000f3fe6080604052600436106101185760003560e01c80638bad38dd116100a0578063c1aa243611610064578063c1aa24361461040a578063c30796ab14610443578063cbe278fe14610473578063e9595a0014610495578063f619ffd8146104c557600080fd5b80638bad38dd14610376578063a29d72a214610396578063a5425f56146103b5578063ae4b53f2146103d5578063b59ee96c146103f557600080fd5b80635c922ca5116100e75780635c922ca51461027e5780635fdf76521461029e578063702aa298146102d2578063773b6a161461031b578063893d20e81461035857600080fd5b8063095e1488146101d0578063305664cc1461021c5780633b0bd2b81461023e5780634bcecd751461025e57600080fd5b366101cb5730317f00000000000000000000000000000000000000000000000000000000000000006001600160a01b031663d0e30db0826040518263ffffffff1660e01b81526004016000604051808303818588803b15801561017a57600080fd5b505af115801561018e573d6000803e3d6000fd5b50506040518481523393507fecb865883ec69b0d00ee1bed3b735ecf8dec2e91e6ce400100c5e3fad740abb49250602001905060405180910390a2005b600080fd5b3480156101dc57600080fd5b507f00000000000000000000000000000000000000000000000000000000000000005b6040516001600160a01b0390911681526020015b60405180910390f35b34801561022857600080fd5b5061023c61023736600461162f565b6104e5565b005b34801561024a57600080fd5b5061023c6102593660046116b9565b610669565b34801561026a57600080fd5b5061023c6102793660046116b9565b6106eb565b34801561028a57600080fd5b5061023c6102993660046116d6565b6107f1565b3480156102aa57600080fd5b507ffb9110954940f76de12f38896dc4553b45e286f4c25e1cc0eab107f20f58da5e546101ff565b3480156102de57600080fd5b5061030b6102ed3660046116b9565b6001600160a01b031660009081526004602052604090205460ff1690565b6040519015158152602001610213565b34801561032757600080fd5b507ffb9110954940f76de12f38896dc4553b45e286f4c25e1cc0eab107f20f58da5f5b604051908152602001610213565b34801561036457600080fd5b506001546001600160a01b03166101ff565b34801561038257600080fd5b5061023c6103913660046116b9565b610928565b3480156103a257600080fd5b50600254600160a01b900460ff1661030b565b3480156103c157600080fd5b5061023c6103d036600461162f565b6109b6565b3480156103e157600080fd5b5061023c6103f036600461176d565b610a50565b34801561040157600080fd5b5060035461034a565b34801561041657600080fd5b5061030b6104253660046116b9565b6001600160a01b031660009081526005602052604090205460ff1690565b34801561044f57600080fd5b5061030b61045e3660046116b9565b60056020526000908152604090205460ff1681565b34801561047f57600080fd5b50610488610af3565b60405161021391906117be565b3480156104a157600080fd5b5061030b6104b03660046116b9565b60046020526000908152604090205460ff1681565b3480156104d157600080fd5b5061023c6104e036600461162f565b610b55565b6000546001600160a01b031633146105185760405162461bcd60e51b815260040161050f9061180b565b60405180910390fd5b60005b818110156106285760016004600085858581811061053b5761053b611852565b905060200201602081019061055091906116b9565b6001600160a01b031681526020810191909152604001600020805460ff191691151591909117905561060b83838381811061058d5761058d611852565b90506020020160208101906105a291906116b9565b60068054806020026020016040519081016040528092919081815260200182805480156105f857602002820191906000526020600020905b81546001600160a01b031681526001909101906020018083116105da575b5050505050610be790919063ffffffff16565b805161061f916006916020909101906115b5565b5060010161051b565b507f19637bc2254e06f4c63c35fc65e27c578b0299fae6dee753b2e782709dca9dce8282600660405161065d939291906118b1565b60405180910390a15050565b6000546001600160a01b031633146106935760405162461bcd60e51b815260040161050f9061180b565b6001600160a01b038116600081815260046020908152604091829020805460ff1916905590519182527f8696428e4c13abc112d247ddccc74df025bb073508f432f4cee176f7c553c3ee91015b60405180910390a150565b6000546001600160a01b031633146107155760405162461bcd60e51b815260040161050f9061180b565b6001600160a01b038116600090815260046020908152604091829020805460ff19166001179055600680548351818402810184019094528084526107a3938593909291908301828280156105f8576020028201919060005260206000209081546001600160a01b031681526001909101906020018083116105da575050505050610be790919063ffffffff16565b80516107b7916006916020909101906115b5565b506040516001600160a01b03821681527fe7d09de77b604c0a8826f4d40fd7c228fcd076c2a62bbf4b4b0bac19247f1eca906020016106e0565b6000546001600160a01b0316331461081b5760405162461bcd60e51b815260040161050f9061180b565b600083600281111561082f5761082f611919565b036108785761087382828080601f016020809104026020016040519081016040528093929190818152602001838380828437600092019190915250610c1292505050565b505050565b600183600281111561088c5761088c611919565b036108d05761087382828080601f016020809104026020016040519081016040528093929190818152602001838380828437600092019190915250610d9b92505050565b60028360028111156108e4576108e4611919565b036108735761087382828080601f016020809104026020016040519081016040528093929190818152602001838380828437600092019190915250610e1d92505050565b6002546001600160a01b031633146109aa576040805162461bcd60e51b81526020600482015260248101919091527f736574436f6d7074726f6c6c6572203a2046756e6374696f6e2063616e206f6e60448201527f6c792062652063616c6c656420627920636f6e74726163742063726561746f72606482015260840161050f565b6109b381610e90565b50565b60005b81811015610a1e576000600460008585858181106109d9576109d9611852565b90506020020160208101906109ee91906116b9565b6001600160a01b031681526020810191909152604001600020805460ff19169115159190911790556001016109b9565b507f821cd44a9437ea156fe5250f168d01e831fb48302a22e6ec8d456cb07c2b8eab828260405161065d92919061192f565b6002546001600160a01b031615610aa95760405162461bcd60e51b815260206004820181905260248201527f696e6974203a2050726f787920416c726561647920696e697469616c697a6564604482015260640161050f565b600280546001600160a01b03191633179055610ac483610e90565b610acd84610f5b565b6002805460ff60a01b1916600160a01b84151502179055610aed81600355565b50505050565b60606006805480602002602001604051908101604052809291908181526020018280548015610b4b57602002820191906000526020600020905b81546001600160a01b03168152600190910190602001808311610b2d575b5050505050905090565b6000546001600160a01b03163314610b7f5760405162461bcd60e51b815260040161050f9061180b565b60005b8181101561087357600160056000858585818110610ba257610ba2611852565b9050602002016020810190610bb791906116b9565b6001600160a01b031681526020810191909152604001600020805460ff1916911515919091179055600101610b82565b6060610bf38383611091565b15610bff575081610c0c565b610c0983836110ec565b90505b92915050565b600080600083806020019051810190610c2b9190611943565b604051636eb1769f60e11b81523060048201526001600160a01b038084166024830152939650919450925060009185169063dd62ed3e90604401602060405180830381865afa158015610c82573d6000803e3d6000fd5b505050506040513d601f19601f82011682018060405250810190610ca69190611986565b1115610d215760405163095ea7b360e01b81526001600160a01b0383811660048301526000602483015284169063095ea7b3906044016020604051808303816000875af1158015610cfb573d6000803e3d6000fd5b505050506040513d601f19601f82011682018060405250810190610d1f919061199f565b505b60405163095ea7b360e01b81526001600160a01b0383811660048301526024820183905284169063095ea7b3906044016020604051808303816000875af1158015610d70573d6000803e3d6000fd5b505050506040513d601f19601f82011682018060405250810190610d94919061199f565b5050505050565b600080600083806020019051810190610db49190611943565b9250925092506000610dc78484846111d4565b9050826001600160a01b0316846001600160a01b03167f645e52ee0ce5c05d60f4b051028f29630be7001f5d84cba67fe6872db872cff883604051610e0e91815260200190565b60405180910390a35050505050565b600080600083806020019051810190610e369190611943565b9250925092506000610e498484846111d4565b9050826001600160a01b0316846001600160a01b03167f6f9cbac839b826cc524f53d10416c053fce34ec15fd1001720e777cc49720e7684604051610e0e91815260200190565b6001600160a01b038116610f015760405162461bcd60e51b815260206004820152603260248201527f5f5f736574436f6d7074726f6c6c65723a206e65787420636f6d7074726f6c6c60448201527165722063616e6e6f7420626520656d70747960701b606482015260840161050f565b600080546001600160a01b038381166001600160a01b031983168117909355604080519190921680825260208201939093527ff9c778bc4132bd7b4191bd075fe55f09ae6c902c7e7ed4208bcad804ed147feb910161065d565b6001600160a01b038116610fc05760405162461bcd60e51b815260206004820152602660248201527f5f5f7365744f776e65723a206e657874204f776e65722063616e6e6f7420626560448201526520656d70747960d01b606482015260840161050f565b6001546001600160a01b0390811690821681036110395760405162461bcd60e51b815260206004820152603160248201527f5f5f7365744f776e65723a204e6577204f776e65722063616e6e6f742062652060448201527029b0b6b29030b99037b6321027bbb732b960791b606482015260840161050f565b600180546001600160a01b0319166001600160a01b0384811691821790925560408051928416835260208301919091527f342827c97908e5e2f71151c08502a66d44b6f758e3ac2f1de95f02eb95f0a735910161065d565b6000805b83518110156110e2578381815181106110b0576110b0611852565b60200260200101516001600160a01b0316836001600160a01b0316036110da576001915050610c0c565b600101611095565b5060009392505050565b6060825160016110fc91906119d2565b67ffffffffffffffff811115611114576111146119ea565b60405190808252806020026020018201604052801561113d578160200160208202803683370190505b50905060005b83518110156111995783818151811061115e5761115e611852565b602002602001015182828151811061117857611178611852565b6001600160a01b039290921660209283029190910190910152600101611143565b5081818451815181106111ae576111ae611852565b60200260200101906001600160a01b031690816001600160a01b03168152505092915050565b6000806111e1858561121b565b90506111f76001600160a01b0386168585611304565b6000611203868661121b565b905061120f8183611356565b925050505b9392505050565b604080516001600160a01b0383811660248084019190915283518084039091018152604490920183526020820180516001600160e01b03166370a0823160e01b179052915160009283928392918716916112759190611a2c565b600060405180830381855afa9150503d80600081146112b0576040519150601f19603f3d011682016040523d82523d6000602084013e6112b5565b606091505b50915091508115806112c957508051602014155b156112e75760405163056a754560e51b815260040160405180910390fd5b808060200190518101906112fb9190611986565b95945050505050565b604080516001600160a01b038416602482015260448082018490528251808303909101815260649091019091526020810180516001600160e01b031663a9059cbb60e01b179052610873908490611362565b6000610c098284611a48565b60006113b7826040518060400160405280602081526020017f5361666545524332303a206c6f772d6c6576656c2063616c6c206661696c6564815250856001600160a01b03166114349092919063ffffffff16565b80519091501561087357808060200190518101906113d5919061199f565b6108735760405162461bcd60e51b815260206004820152602a60248201527f5361666545524332303a204552433230206f7065726174696f6e20646964206e6044820152691bdd081cdd58d8d9595960b21b606482015260840161050f565b6060611443848460008561144b565b949350505050565b6060824710156114ac5760405162461bcd60e51b815260206004820152602660248201527f416464726573733a20696e73756666696369656e742062616c616e636520666f6044820152651c8818d85b1b60d21b606482015260840161050f565b6001600160a01b0385163b6115035760405162461bcd60e51b815260206004820152601d60248201527f416464726573733a2063616c6c20746f206e6f6e2d636f6e7472616374000000604482015260640161050f565b600080866001600160a01b0316858760405161151f9190611a2c565b60006040518083038185875af1925050503d806000811461155c576040519150601f19603f3d011682016040523d82523d6000602084013e611561565b606091505b509150915061157182828661157c565b979650505050505050565b6060831561158b575081611214565b82511561159b5782518084602001fd5b8160405162461bcd60e51b815260040161050f9190611a5f565b82805482825590600052602060002090810192821561160a579160200282015b8281111561160a57825182546001600160a01b0319166001600160a01b039091161782556020909201916001909101906115d5565b5061161692915061161a565b5090565b5b80821115611616576000815560010161161b565b6000806020838503121561164257600080fd5b823567ffffffffffffffff8082111561165a57600080fd5b818501915085601f83011261166e57600080fd5b81358181111561167d57600080fd5b8660208260051b850101111561169257600080fd5b60209290920196919550909350505050565b6001600160a01b03811681146109b357600080fd5b6000602082840312156116cb57600080fd5b8135611214816116a4565b6000806000604084860312156116eb57600080fd5b8335600381106116fa57600080fd5b9250602084013567ffffffffffffffff8082111561171757600080fd5b818601915086601f83011261172b57600080fd5b81358181111561173a57600080fd5b87602082850101111561174c57600080fd5b6020830194508093505050509250925092565b80151581146109b357600080fd5b6000806000806080858703121561178357600080fd5b843561178e816116a4565b9350602085013561179e816116a4565b925060408501356117ae8161175f565b9396929550929360600135925050565b6020808252825182820181905260009190848201906040850190845b818110156117ff5783516001600160a01b0316835292840192918401916001016117da565b50909695505050505050565b60208082526027908201527f4f6e6c7920436f6d7074726f6c6c65722043616e2043616c6c207468697320666040820152663ab731ba34b7b760c91b606082015260800190565b634e487b7160e01b600052603260045260246000fd5b8183526000602080850194508260005b858110156118a657813561188b816116a4565b6001600160a01b031687529582019590820190600101611878565b509495945050505050565b6040815260006118c5604083018587611868565b60208382038185015281855480845282840191508660005282600020935060005b8181101561190b5784546001600160a01b0316835260019485019492840192016118e6565b509098975050505050505050565b634e487b7160e01b600052602160045260246000fd5b602081526000611443602083018486611868565b60008060006060848603121561195857600080fd5b8351611963816116a4565b6020850151909350611974816116a4565b80925050604084015190509250925092565b60006020828403121561199857600080fd5b5051919050565b6000602082840312156119b157600080fd5b81516112148161175f565b634e487b7160e01b600052601160045260246000fd5b600082198211156119e5576119e56119bc565b500190565b634e487b7160e01b600052604160045260246000fd5b60005b83811015611a1b578181015183820152602001611a03565b83811115610aed5750506000910152565b60008251611a3e818460208701611a00565b9190910192915050565b600082821015611a5a57611a5a6119bc565b500390565b6020815260008251806020840152611a7e816040850160208701611a00565b601f01601f1916919091016040019291505056fea264697066735822122030656eb7f4db9ebe7dec85af864ae157e4d851d15a4c064f5e741672cf6de7c564736f6c634300080f0033",
    "linkReferences": {}
  },
  "methodIdentifiers": {
    "addDepositAsset(address)": "4bcecd75",
    "addDepositAssetBulk(address[])": "305664cc",
    "checkPrivateFund()": "a29d72a2",
    "checkWhitelistedAddress(address)": "c1aa2436",
    "depositableAssets(address)": "e9595a00",
    "getDepositLimitForFund()": "b59ee96c",
    "getInvestableAssets()": "cbe278fe",
    "getOwner()": "893d20e8",
    "getUUID()": "773b6a16",
    "getVaultLibrary()": "5fdf7652",
    "getWMATICToken()": "095e1488",
    "init(address,address,bool,uint256)": "ae4b53f2",
    "isDepositAssetAllowed(address)": "702aa298",
    "receiveAction(uint8,bytes)": "5c922ca5",
    "removeDepositAsset(address)": "3b0bd2b8",
    "removeDepositAssetBulk(address[])": "a5425f56",
    "setAllowedInvestors(address[])": "f619ffd8",
    "setComptroller(address)": "8bad38dd",
    "whitelistedAddress(address)": "c30796ab"
  },
  "id": 102
}